:020000040000FA
:100000000C94A3000C94CB000C94CB000C94CB006C
:100010000C94CB000C94CB000C94CB000C94CB0034
:100020000C94CB000C94CB000C94CB000C94CB0024
:100030000C94CB000C94CB000C94CB000C94CB0014
:100040000C94DD040C94CB000C944D050C94270506
:100050000C94CB000C94CB000C94CB000C94CB00F4
:100060000C94CB000C94CB0008000000BE922449F5
:10007000123EABAAAA2ABECDCCCC4C3E00000080DA
:10008000BEABAAAAAA3E00000000BF000000803F4D
:100090000000000000084178D3BB4387D1133D190D
:1000A0000E3CC3BD4282AD2B3E68EC8276BED98F3A
:1000B000E1A93E4C80EFFFBE01C4FF7F3F0000007E
:1000C000000007634236B79BD8A71A39685618AEA6
:1000D000BAAB558C1D3CB7CC5763BD6DEDFD753E7D
:1000E000F6177231BF000000803F000000002300BF
:1000F0002600290000000008000201000003040798
:1001000000000000000000000000000025002800A2
:100110002B0000000000240027002A00040404042F
:1001200004040404020202020202030303030303A1
:10013000010204081020408001020408102001027E
:1001400004081020660711241FBECFEFD8E0DEBFE1
:10015000CDBF11E0A0E0B1E0ECE0F7E102C0059016
:100160000D92A83AB107D9F722E0A8EAB1E001C0A0
:100170001D92A435B207E1F710E0C3EAD0E004C055
:100180002197FE010E947E0BC23AD107C9F70E9457
:100190007F050C94840B0C940000833081F028F4CC
:1001A000813099F08230A9F008958730A9F0883025
:1001B000C9F08430B1F4809180008F7D03C08091BC
:1001C00080008F7780938000089584B58F7784BDF9
:1001D000089584B58F7DFBCF8091B0008F77809399
:1001E000B00008958091B0008F7DF9CFCF93DF9359
:1001F000282F30E0F901EC50FF4F8491F901E05DC8
:10020000FE4FD491F901E45EFE4FC491CC23A1F0DE
:1002100081110E94CD00EC2FF0E0EE0FFF1FE651A0
:10022000FF4FA591B491EC91ED2381E090E009F4AA
:1002300080E0DF91CF91089580E090E0FACF1F93A6
:10024000CF93DF93282F30E0F901EC50FF4F8491DA
:10025000F901E05DFE4FD491F901E45EFE4FC491D7
:10026000CC23A9F0162F81110E94CD00EC2FF0E0D5
:10027000EE0FFF1FE85FFE4FA591B4918FB7F89482
:10028000EC91111108C0D095DE23DC938FBFDF9174
:10029000CF911F910895DE2BF8CF3FB7F89480914E
:1002A000AD019091AE01A091AF01B091B00126B522
:1002B000A89B05C02F3F19F00196A11DB11D3FBF9E
:1002C000BA2FA92F982F8827BC01CD01620F711D6D
:1002D000811D911D42E0660F771F881F991F4A9567
:1002E000D1F708958F929F92AF92BF92CF92DF92F3
:1002F000EF92FF924B015C010E944D016B017C016A
:100300000E944D016C197D098E099F09683E73405A
:1003100081059105A8F321E0821A9108A108B1088E
:1003200088EEC80E83E0D81EE11CF11C81149104F4
:10033000A104B10429F7FF90EF90DF90CF90BF9018
:10034000AF909F908F9008954F925F926F927F929F
:100350008F929F92AF92BF92CF92DF92FF920F93B4
:100360001F93CF93DF9300D000D01F92CDB7DEB79D
:100370005C0119821A821B821C821D82F82E8C015C
:100380001127C801805D9E4F6C01FC012491045E21
:100390001E4FF8018491882399F090E0880F991FEF
:1003A000FC01EE5EFE4FA591B491FC01E85FFE4FAB
:1003B000859194918FB7F8949C91292B2C938FBFA2
:1003C00060E08A2D0E941F0162E170E080E090E011
:1003D0000E94720161E08A2D0E941F018BE990E06A
:1003E0000197F1F7F601C490F80104910023C1F0E0
:1003F00010E0000F111FF801EE5EFE4FA591B491C1
:10040000F801E85FFE4F259134919FB7F8948C91E5
:10041000C0948C218C93F9018081C822C0829FBF37
:1004200001E117E28F2D0E94F600892BD1F40150D3
:100430001109C1F78EEF9FEF0F900F900F900F9063
:100440000F90DF91CF911F910F91FF90DF90CF9090
:10045000BF90AF909F908F907F906F905F904F90E4
:10046000089501E117E28F2D0E94F600019721F413
:1004700001501109C1F7DECF28E2C22ED12C17E0BE
:1004800000E0AA24A394B12C91E1892E97E2992E41
:100490008F2D0E94F600892B29F4F1E08F1A910824
:1004A000B9F7C8CF0E944D012B013C0181E1882E94
:1004B00087E2982E8F2D0E94F600019729F481E0A3
:1004C000881A9108B9F7B6CF0E944D0164197509D1
:1004D00086099709693271058105910578F0E1E097
:1004E000F0E0EC0FFD1FE00FF11D80819501012E62
:1004F00001C0220F0A94EAF7822B8083111121C0D8
:100500000F5F17E091E0C91AD10809F0BDCF8981CA
:10051000282F30E03093B4012093B3012B81422F78
:1005200050E05093B6014093B501280F81E090E070
:100530003D81231302C090E080E09195819591095F
:100540007BCF1150DFCF8091B1019091B20197FF25
:1005500006C082E090E09093B2018093B101809157
:10056000B1019091B2010C94A401AF92BF92CF92CD
:10057000DF92EF92FF920F931F93CF93DF936C0163
:100580007B018B01040F151FEB015E01AE18BF0844
:10059000C017D10759F06991D601ED91FC910190F6
:1005A000F081E02DC6010995892B79F7C501DF910E
:1005B000CF911F910F91FF90EF90DF90CF90BF9060
:1005C000AF900895FC01538D448D252F30E0842F8A
:1005D00090E0821B930B541710F0CF96089501976B
:1005E0000895FC01918D828D981761F0A28DAE0F58
:1005F000BF2FB11D5D968C91928D9F5F9F73928FDF
:1006000090E008958FEF9FEF0895FC01918D828D0A
:10061000981731F0828DE80FF11D858D90E00895D7
:100620008FEF9FEF0895FC01918D228D892F90E02F
:10063000805C9F4F821B91098F739927089587EBE8
:1006400091E00E94130321E0892B09F420E0822F1E
:10065000089580E090E0892B29F00E941F0381110A
:100660000C9400000895FC01A48DA80FB92FB11DB2
:10067000A35ABF4F2C91848D90E001968F739927D8
:10068000848FA689B7892C93A089B1898C918370B6
:1006900080648C93938D848D981306C00288F389AF
:1006A000E02D80818F7D80830895EF92FF920F93DC
:1006B0001F93CF93DF93EC0181E0888F9B8D8C8D0E
:1006C00098131AC0E889F989808185FF15C09FB702
:1006D000F894EE89FF896083E889F98980818370C5
:1006E000806480839FBF81E090E0DF91CF911F9174
:1006F0000F91FF90EF900895F62E0B8D10E00F5F95
:100700001F4F0F731127E02E8C8D8E110CC00FB66A
:1007100007FCFACFE889F989808185FFF5CFCE0102
:100720000E943303F1CFEB8DEC0FFD2FF11DE35A47
:10073000FF4FF0829FB7F8940B8FEA89FB89808185
:100740008062CFCFCF93DF93EC01888D8823B9F0FF
:10075000AA89BB89E889F9898C9185FD03C08081CC
:1007600086FD0DC00FB607FCF7CF8C9185FFF2CF49
:10077000808185FFEDCFCE010E943303E9CFDF9169
:10078000CF910895FC0101900020E9F73197AF0166
:10079000481B590BBC0187EB91E00C94B5028F927A
:1007A0009F92AF92BF920F931F93CF93DF93CDB7DA
:1007B000DEB7A1970FB6F894DEBF0FBECDBF19A26A
:1007C000423008F44AE08E010F5D1F4F842E912CB9
:1007D000B12CA12CA50194010E945C0BE62FB9015C
:1007E000CA01EA30F4F4E05DD801EE938D01232BC9
:1007F000242B252B79F790E080E0109719F0CD019C
:100800000E94C203A1960FB6F894DEBF0FBECDBF03
:10081000DF91CF911F910F91BF90AF909F908F90DC
:100820000895E95CE1CF4F925F926F927F928F9231
:100830009F92AF92BF92CF92DF92EF92FF926B01A5
:100840007C01AC019B010E94720A8823C1F082E105
:1008500091E00E94C2037C018EE191E00E94C203FC
:100860008E0D9F1DFF90EF90DF90CF90BF90AF90C7
:100870009F908F907F906F905F904F90089546016A
:100880005701E894B7F82FEF3FEF4FE75FE7C50157
:10089000B4010E94720A81110DC02FEF3FEF4FE7A4
:1008A0005FE7C501B4010E94000818161CF486E138
:1008B00091E0CFCF2FEF3FEF4FE75FE4C701B601E5
:1008C0000E94580918161CF48AE191E0C2CF2FEF5C
:1008D0003FEF4FE75FECC701B6010E94000887FDBC
:1008E000F3CF20E030E0A901C701B6010E94000863
:1008F000B12CA12C87FF0AC06DE287EB91E00E942A
:1009000055035C01F7FAF094F7F8F0942AE037ED1C
:1009100043EA5BE3C701B6010E9494072B013C0147
:100920000E9477086B017C010E94A6089B01AC0124
:10093000C301B2010E9493072B013C014AE0C701A9
:10094000B6010E94CF037C01EA0CFB1C6EE287EB30
:1009500091E00E945503E80EF91E20E030E040E2ED
:1009600051E4C301B2010E94B5092B013C010E9470
:1009700077084B01B12CA12C4AE0C501B4010E94BB
:10098000CF03E80EF91EC501B4010E94A6089B0121
:10099000AC01C301B2010E94930720E030E040E2C5
:1009A00051E40E94B5090E94770890E080E04AE097
:1009B0000E94CF03E80EF91E4FCF1F920F920FB681
:1009C0000F9211242F933F938F939F93AF93BF93D5
:1009D0008091A9019091AA01A091AB01B091AC01C5
:1009E0003091A80123E0230F2D3758F50196A11D62
:1009F000B11D2093A8018093A9019093AA01A0930F
:100A0000AB01B093AC018091AD019091AE01A0918A
:100A1000AF01B091B0010196A11DB11D8093AD0150
:100A20009093AE01A093AF01B093B001BF91AF918D
:100A30009F918F913F912F910F900FBE0F901F901C
:100A4000189526E8230F0296A11DB11DD2CF1F9243
:100A50000F920FB60F9211242F933F934F935F93F2
:100A60006F937F938F939F93AF93BF93EF93FF9376
:100A700087EB91E00E943303FF91EF91BF91AF911B
:100A80009F918F917F916F915F914F913F912F91A6
:100A90000F900FBE0F901F9018951F920F920FB6D8
:100AA0000F9211242F938F939F93EF93FF93E091D5
:100AB000C701F091C8018081E091CD01F091CE0194
:100AC00082FD1BC090818091D0018F5F8F73209138
:100AD000D101821741F0E091D001F0E0E954FE4FDE
:100AE000958F8093D001FF91EF919F918F912F91DE
:100AF0000F900FBE0F901F9018958081F4CF7894BF
:100B000084B5826084BD84B5816084BD85B5826012
:100B100085BD85B5816085BD80916E0081608093C3
:100B20006E0010928100809181008260809381002C
:100B3000809181008160809381008091800081603C
:100B4000809380008091B10084608093B100809197
:100B5000B00081608093B00080917A0084608093BF
:100B60007A0080917A00826080937A0080917A0086
:100B7000816080937A0080917A00806880937A0007
:100B80001092C100E091C701F091C80182E080831A
:100B9000E091C301F091C4011082E091C501F09190
:100BA000C6018FEC80831092CF01E091CB01F091D0
:100BB000CC0186E08083E091C901F091CA01808177
:100BC00080618083E091C901F091CA0180818860D1
:100BD0008083E091C901F091CA018081806880839F
:100BE000E091C901F091CA0180818F7D808381E20B
:100BF00091E00E94C2038EE191E00E94C203C0E036
:100C0000D0E08FE191E00E94C2038EE191E00E946A
:100C1000C20382E090E00E94A4016C01990FEE08EB
:100C2000FF084AE0C701B601F7FE0DC06DE287EB91
:100C300091E00E94550366277727CB016C197D0947
:100C40008E099F094AE00E94CF038EE191E00E9445
:100C5000C20388E491E00E94C2036091B3017091E5
:100C6000B401072E000C880B990B0E94A8080E9463
:100C7000130482E591E00E94C2036091B501709176
:100C8000B601072E000C880B990B0E94A8080E9441
:100C9000130487E691E00E94C2030E94A3026091C0
:100CA000B5017091B601072E000C880B990B0E94BC
:100CB000A80826E636E646EE5FE30E94B50920E086
:100CC00030E040E052E40E9494070E9413048FE752
:100CD00091E00E94C2030E94A3026091B50170914D
:100CE000B601072E000C880B990B0E94A80823E37D
:100CF00033E948E853E40E9494070E94130483E90F
:100D000091E00E94C2030E94A3026091B50170911C
:100D1000B601072E000C880B990B0E94A80823E34C
:100D200033E948E853E40E9494079B01AC0163E374
:100D300073E98AEB93E40E9405086B017C0120E0D3
:100D400030E040E85FE30E9493074B015C0126E33B
:100D500035EE4CEF50EC0E94B5092B013C01C70168
:100D6000B6010E945D0928E036EE40EA50E40E9498
:100D7000B509A30192010E9494072B013C01A70130
:100D8000960160E070E080E89FE30E9405089B0107
:100D9000AC0160E070E080E89FE30E94930726E0EA
:100DA00031E845E351E40E94B5099B01AC0160E0E4
:100DB00070E080E291E40E94220A20E030E040E806
:100DC0005FE30E94930722E239E544E154EB0E947D
:100DD000B509A30192010E9494076B017C0122E9ED
:100DE00034E74FE550ECC501B4010E94B5099B0101
:100DF000AC0160E070E080E291E40E94220A20E011
:100E000030E040E85FE30E94930720E73FE345E0DE
:100E10005CE30E94B509A70196010E94940722EAAB
:100E20003DE540E450E40E94940720E030E040E4D7
:100E300050E40E9493079B01AC0160E070E080E207
:100E400091E40E94220A6B017C016091B3017091D0
:100E5000B401072E000C880B990B0E94A808A7016B
:100E600096010E94B50924E13CE54CE15FE30E9454
:100E700005080E946D096B017C0128E431EE41E711
:100E800053E40E94B5094B015C01A701960169EC8E
:100E900076E78CE891E40E9493079B01AC01C501C1
:100EA000B4010E9405080E94130460ED77E080E021
:100EB00090E00E947201209709F4A3CE0E941F03C4
:100EC000882309F49ECE0E9400009BCEE7EBF1E060
:100ED0001382128288EE93E0A0E0B0E084839583D1
:100EE000A683B78384E091E09183808385EC90E0D2
:100EF0009587848784EC90E09787868780EC90E0E4
:100F0000918B808B81EC90E0938B828B82EC90E0D4
:100F1000958B848B86EC90E0978B868B118E128E4E
:100F2000138E148E08955058BB27AA270E94AB0732
:100F30000C941E090E94100938F00E94170920F035
:100F400039F49F3F19F426F40C940D090EF4E09542
:100F5000E7FB0C940709E92F0E942F0958F3BA17F1
:100F6000620773078407950720F079F4A6F50C94BF
:100F700051090EF4E0950B2EBA2FA02D0B01B901EB
:100F800090010C01CA01A0011124FF27591B99F0FF
:100F9000593F50F4503E68F11A16F040A22F232F0B
:100FA000342F4427585FF3CF469537952795A7955B
:100FB000F0405395C9F77EF41F16BA0B620B730B02
:100FC000840BBAF09150A1F0FF0FBB1F661F771F73
:100FD000881FC2F70EC0BA0F621F731F841F48F428
:100FE000879577956795B795F7959E3F08F0B0CFB1
:100FF0009395880F08F09927EE0F97958795089598
:101000000E94E30808F481E008950E9419080C94F6
:101010001E090E94170958F00E94100940F029F497
:101020005F3F29F00C94070951110C9452090C945C
:101030000D090E942F0968F39923B1F3552391F309
:10104000951B550BBB27AA2762177307840738F037
:101050009F5F5F4F220F331F441FAA1FA9F335D094
:101060000E2E3AF0E0E832D091505040E695001C48
:10107000CAF72BD0FE2F29D0660F771F881FBB1F02
:10108000261737074807AB07B0E809F0BB0B802DE0
:10109000BF01FF2793585F4F3AF09E3F510578F00C
:1010A0000C9407090C9452095F3FE4F3983ED4F383
:1010B000869577956795B795F7959F5FC9F7880FE0
:1010C000911D9695879597F90895E1E0660F771F32
:1010D000881FBB1F621773078407BA0720F0621BC3
:1010E000730B840BBA0BEE1F88F7E09508950E94EE
:1010F000370988F09F5798F0B92F9927B751B0F06A
:10110000E1F0660F771F881F991F1AF0BA95C9F78B
:1011100014C0B13091F00E945109B1E008950C94CF
:101120005109672F782F8827B85F39F0B93FCCF382
:10113000869577956795B395D9F73EF49095809508
:10114000709561957F4F8F4F9F4F0895E89409C028
:1011500097FB3EF490958095709561957F4F8F4FEA
:101160009F4F9923A9F0F92F96E9BB279395F69500
:10117000879577956795B795F111F8CFFAF4BB0F7E
:1011800011F460FF1BC06F5F7F4F8F4F9F4F16C0E2
:10119000882311F096E911C0772321F09EE8872F6C
:1011A000762F05C0662371F096E8862F70E060E028
:1011B0002AF09A95660F771F881FDAF7880F9695A1
:1011C000879597F90895990F0008550FAA0BE0E845
:1011D000FEEF16161706E807F907C0F012161306F9
:1011E000E407F50798F0621B730B840B950B39F439
:1011F0000A2661F0232B242B252B21F408950A269F
:1012000009F4A140A6958FEF811D811D089597F9DE
:101210009F6780E870E060E008959FEF80EC08959C
:1012200000240A94161617061806090608950024C5
:101230000A9412161306140605060895092E03943F
:10124000000C11F4882352F0BB0F40F4BF2B11F4B3
:1012500060FF04C06F5F7F4F8F4F9F4F089557FD12
:101260009058440F551F59F05F3F71F04795880F14
:1012700097FB991F61F09F3F79F0879508951216AB
:1012800013061406551FF2CF4695F1DF08C0161657
:1012900017061806991FF1CF869571056105089408
:1012A0000895E894BB2766277727CB0197F908951F
:1012B0000E94E30808F48FEF08950E946D0929ED5C
:1012C0003BE54EED5EE30C94B50916F00C94B10AC3
:1012D0000C940D0968940C9407090E943709A8F32F
:1012E0009923C1F3AEF3DF93CF931F930F93FF9234
:1012F000C92FDD2788232AF02197660F771F881FC3
:10130000DAF720E030E040E85FEB9FE3883920F037
:10131000803E38F021968F770E949407E8E6F0E04F
:1013200004C00E949407E5E9F0E00E94BF0A8B0127
:10133000BE01EC01FB2E6F5771097595771F880B65
:10134000990B0E94A80828E132E741E35FE30E947D
:10135000C809AF2D9801AE01FF900F911F91CF9159
:10136000DF910E94AB070C941E090E94C8090C94DF
:101370001E090E94100938F00E94170920F09523D9
:1013800011F00C9407090C940D0911240C945209C6
:101390000E942F0970F3959FC1F3950F50E0551FE0
:1013A000629FF001729FBB27F00DB11D639FAA27BA
:1013B000F00DB11DAA1F649F6627B00DA11D661F09
:1013C000829F2227B00DA11D621F739FB00DA11D2A
:1013D000621F839FA00D611D221F749F3327A00DE4
:1013E000611D231F849F600D211D822F762F6A2F80
:1013F00011249F5750409AF0F1F088234AF0EE0FE5
:10140000FF1FBB1F661F771F881F91505040A9F711
:101410009E3F510580F00C9407090C9452095F3FE0
:10142000E4F3983ED4F3869577956795B795F7954D
:10143000E7959F5FC1F7FE2B880F911D96958795C5
:1014400097F90895FA01EE0FFF1F30962105310537
:10145000A1F16115710561F48038BFE39B0749F183
:1014600068949038810561F08038BFEF9B0741F0A8
:1014700099234AF5FF3FE1053105210519F1E8946B
:101480000894E795D901AA2329F4AB2FBE2FF85F62
:10149000D0F310C0FF5F70F4A695E0F7F73950F075
:1014A00019F0FF3A38F49F779F930DD00F9007FC07
:1014B0009058089546F00C940D0960E070E080E8C3
:1014C0009FE308954FE79F775F934F933F932F9349
:1014D0000E946D092F913F914F915F910E94B50934
:1014E0000C947F0A0E94E308880B990B089529F455
:1014F00016F00C9407090C9451090C940D090E94E4
:101500003709A8F39638A0F707F80F92E8942BE371
:101510003AEA48EB5FE70E94CB090F920F920F92D5
:101520004DB75EB70F920E94280BE2ECF0E00E94EC
:10153000BF0A4F915F91EF91FF91E595EE1FFF1F5D
:1015400049F0FE57E0684427EE0F441FFA95E1F793
:101550004195550B0E94F20A0F9007FE0C94E60A83
:1015600008959F3F31F0915020F4879577956795C6
:10157000B795880F911D9695879597F90895DF93F4
:10158000CF931F930F93FF92EF92DF927B018C0119
:10159000689406C0DA2EEF010E94C809FE01E894A3
:1015A000A5912591359145915591A6F3EF010E94A2
:1015B000AB07FE019701A801DA9469F7DF90EF907D
:1015C000FF900F911F91CF91DF9108959B01AC0186
:1015D00060E070E080E89FE30C9405080C94070934
:1015E0000C94B10A0E943709D8F39923C9F3940FD8
:1015F000511DA3F39150504094F059F0882332F0DC
:10160000660F771F881F91505040C1F79E3F5105CC
:101610002CF7880F911D9695879597F908955F3F50
:10162000ACF0983E9CF0BB27869577956795B7956B
:1016300008F4B1609395C1F7BB0F58F711F460FF40
:10164000E8CF6F5F7F4F8F4F9F4FE3CF0C945209CE
:10165000FA01DC01AA0FBB1F9B01AC01BF5728F4A4
:10166000222733274427507820C0B75190F4AB2F5E
:101670000024469537952795011CA395D2F30020A9
:1016800071F0220F331F441FB395DAF30ED00C9480
:10169000930761307105A0E88A07B94630F49B01D1
:1016A000AC016627772788279078309621F0208331
:1016B0003183428353830895A1E21A2EAA1BBB1BD8
:1016C000FD010DC0AA1FBB1FEE1FFF1FA217B3070E
:1016D000E407F50720F0A21BB30BE40BF50B661F24
:1016E000771F881F991F1A9469F7609570958095E8
:1016F00090959B01AC01BD01CF010895EE0FFF1F36
:101700000590F491E02D0994F894FFCF00000000BB
:101710005503B502E202A2031303F10205036E6151
:101720006E00696E66006F7666000D0A0041726495
:1017300075696E6F7475726B6979652E636F6D2054
:10174000444854313120546573742050726F67726D
:10175000616D69004E656D202825293A2000536986
:1017600063616B6C696B202843656C6369757329D1
:101770003A2000536963616B6C696B20284661688D
:1017800072656E68656974293A2000536963616BFC
:101790006C696B20284B656C76696E293A20004392
:1017A0006967204F6C75736D61204E6F6B74617348
:0417B000693A200072
:107E0000112484B714BE81FFF0D085E080938100F7
:107E100082E08093C00088E18093C10086E0809377
:107E2000C20080E18093C4008EE0C9D0259A86E02C
:107E300020E33CEF91E0309385002093840096BBD3
:107E4000B09BFECF1D9AA8958150A9F7CC24DD24C4
:107E500088248394B5E0AB2EA1E19A2EF3E0BF2EE7
:107E6000A2D0813461F49FD0082FAFD0023811F036
:107E7000013811F484E001C083E08DD089C08234E0
:107E800011F484E103C0853419F485E0A6D080C0E4
:107E9000853579F488D0E82EFF2485D0082F10E0AE
:107EA000102F00270E291F29000F111F8ED06801E7
:107EB0006FC0863521F484E090D080E0DECF843638
:107EC00009F040C070D06FD0082F6DD080E0C81688
:107ED00080E7D80618F4F601B7BEE895C0E0D1E017
:107EE00062D089930C17E1F7F0E0CF16F0E7DF06D8
:107EF00018F0F601B7BEE89568D007B600FCFDCFD4
:107F0000A601A0E0B1E02C9130E011968C91119780
:107F100090E0982F8827822B932B1296FA010C0160
:107F200087BEE89511244E5F5F4FF1E0A038BF0790
:107F300051F7F601A7BEE89507B600FCFDCF97BE46
:107F4000E89526C08437B1F42ED02DD0F82E2BD052
:107F50003CD0F601EF2C8F010F5F1F4F84911BD097
:107F6000EA94F801C1F70894C11CD11CFA94CF0C13
:107F7000D11C0EC0853739F428D08EE10CD085E9AC
:107F80000AD08FE07ACF813511F488E018D01DD067
:107F900080E101D065CF982F8091C00085FFFCCF94
:107FA0009093C60008958091C00087FFFCCF809118
:107FB000C00084FD01C0A8958091C6000895E0E648
:107FC000F0E098E1908380830895EDDF803219F02E
:107FD00088E0F5DFFFCF84E1DECF1F93182FE3DFCA
:107FE0001150E9F7F2DF1F91089580E0E8DFEE27F6
:047FF000FF270994CA
:027FFE00040479
:00000001FF
