:100000000C9424010C9445010C9445010C94450179
:100010000C9445010C9445010C9445010C94450148
:100020000C9445010C9445010C9445010C94450138
:100030000C9445010C9445010C9445010C94450128
:100040000C9445010C9445010C9445010C94450118
:100050000C9445010C9445010C9445010C948B02C1
:100060000C9445010C9445010C9445010C944501F8
:100070000C9445010C9445010C9445010C944501E8
:100080000C9445010C9445010C9445010C944501D8
:100090000C9445010C9445010C9445010C944501C8
:1000A0000C9445010C9445010C9445010C944501B8
:1000B0000C9445010C9445010C9445010C944501A8
:1000C0000C9445010C9445010C9445010C94450198
:1000D0000C9445010C9445010C9445010C94450188
:1000E0000C9445010C949C010C946F010C947301C9
:1000F0000C947A010C9465010C946B010C947701BB
:100100000C9480010C9498010C94AA010C94A60103
:100110000C948A010C94A5010C948E010C9484011A
:100120000C9492010C94A0010000210024002700EF
:100130002A002D00300033000101000004010701F6
:100140000A01000020002300260029002C002F00B7
:100150003200000100000301060109010000220035
:10016000250028002B002E00310034000201000081
:10017000050108010B010505050507050808080824
:10018000020202020A0A080804040404010101012F
:10019000010101010303030303030303040707072A
:1001A0000C0C0C0C0C0C0C0C0202020206060606CF
:1001B000060606060B0B0B0B0B0B0B0B010210209C
:1001C000200808102040102040800201020108048D
:1001D0000201010204081020408080402010080421
:1001E000020180040201804020100804020108047A
:1001F00002010102040810204080010204081020BE
:10020000408000000A0B02090C0D0E0807030401D0
:1002100000000000000000000000000000000000DE
:1002200000000000000000000000000000001211AB
:1002300010000000000000000000000000000000AE
:10024000000000000000000011241FBECFEFD1E22B
:10025000DEBFCDBF00E00CBF12E0A0E0B2E0E6E6FA
:10026000F7E000E00BBF02C007900D92A230B1078B
:10027000D9F722E0A2E0B2E001C01D92AB30B20794
:10028000E1F70E94D5020C94B1030C940000815058
:10029000823108F05AC0E82FF0E08827ED5AFE4F6F
:1002A0008F4F0C94A9037301770165016B016F01F6
:1002B000A5017A01800184018A018E0192019801D1
:1002C0009C01A501A001A601AA01809180008F7761
:1002D000809380000895809180008F7DF9CF809178
:1002E0008000877FF5CF84B58F7784BD089584B56E
:1002F0008F7DFBCF8091B0008F778093B000089501
:100300008091B0008F7DF9CF809190008F7780939E
:1003100090000895809190008F7DF9CF809190009A
:10032000877FF5CF8091A0008F778093A0000895FC
:100330008091A0008F7DF9CF8091A000877FF5CFBD
:10034000809120018F778093200108958091200172
:100350008F7DF9CF80912001877FF5CF1F93CF93B9
:10036000DF93E2E1F2E09491ECECF1E0D491E6E885
:10037000F1E0C491CC23B9F0182F992319F0892FFB
:100380000E944701EC2FF0E0EE0FFF1FE45AFE4FF2
:10039000A591B4918FB7F894EC91111108C0D09544
:1003A000DE23DC938FBFDF91CF911F910895DE2B69
:1003B000F8CFCF93DF93282F30E0F901EE5FFD4FA8
:1003C0008491F901E454FE4FD491F901EA58FE4FAB
:1003D000C491CC23A1F081110E944701EC2FF0E0E1
:1003E000EE0FFF1FEE5BFE4FA591B491EC91ED2354
:1003F00081E090E009F480E0DF91CF91089580E002
:1004000090E0FACFCF93DF9390E0FC01E454FE4FED
:1004100024918A589E4FFC0184918823D1F090E06A
:10042000880F991FFC01E85DFE4FA591B491FC0176
:10043000E45AFE4FC591D491623071F49FB7F8949D
:100440003C91822F809583238C93E8812E2B2883E7
:100450009FBFDF91CF9108958FB7F894EC912E2B29
:100460002C938FBFF6CF3FB7F894809107029091FD
:100470000802A0910902B0910A0226B5A89B05C006
:100480002F3F19F00196A11DB11D3FBFBA2FA92F13
:10049000982F8827BC01CD01620F711D811D911D10
:1004A00042E0660F771F881F991F4A95D1F708957C
:1004B0008F929F92AF92BF92CF92DF92EF92FF9274
:1004C0006B017C010E9433024B015C01C114D10419
:1004D000E104F104B9F00E943302681979098A092C
:1004E0009B09683E73408105910580F321E0C21AA3
:1004F000D108E108F10888EE880E83E0981EA11C5F
:10050000B11CE4CFFF90EF90DF90CF90BF90AF9001
:100510009F908F9008951F920F920FB60F92112403
:100520002F933F938F939F93AF93BF938091030239
:1005300090910402A0910502B0910602309102024E
:1005400023E0230F2D3758F50196A11DB11D2093EF
:1005500002028093030290930402A0930502B093D9
:1005600006028091070290910802A0910902B091C1
:100570000A020196A11DB11D809307029093080203
:10058000A0930902B0930A02BF91AF919F918F91FE
:100590003F912F910F900FBE0F901F90189526E856
:1005A000230F0296A11DB11DD2CF789484B582602D
:1005B00084BD84B5816084BD85B5826085BD85B507
:1005C000816085BD80916E00816080936E00109285
:1005D0008100809181008260809381008091810000
:1005E0008160809381008091800081608093800091
:1005F0008091B10084608093B1008091B0008160EF
:100600008093B000809191008260809391008091EE
:10061000910081608093910080919000816080932F
:1006200090008091A10082608093A1008091A10040
:1006300081608093A1008091A00081608093A000E0
:10064000809121018260809321018091210181604C
:10065000809321018091200181608093200180910D
:100660007A00846080937A0080917A00826080931F
:100670007A0080917A00816080937A0080917A007C
:10068000806880937A001092C10061E080E10E944E
:10069000020262E083E00E94020262E086E00E94C1
:1006A0000202C0E0D0E004E610E080EDE82E87E032
:1006B000F82E81E00E94AE01C0900002D0900102AD
:1006C00046010D2C000CAA08BB08C501B4010E940C
:1006D000580280E00E94AE01C501B4010E94580298
:1006E00083E00E94D9015C0186E00E94D901AB2819
:1006F00039F0892BD1F02097E1F20E940000D9CF88
:1007000024E6C21AD10824E6C216D1042CF0D092F5
:100710000102C0920002EDCF10930102009300028B
:10072000892B49F788EC90E00AC0809100029091F3
:1007300001028C599F4F813D27E092072CF4909342
:10074000010280930002D7CFF0920102E0920002F2
:10075000D2CFEE0FFF1F881F8BBF0790F691E02DC1
:060760001994F894FFCF8C
:02076600F4019C
:00000001FF
