:100000000C9483000C94B4000C94B4000C94B400D1
:100010000C94B4000C94B4000C94B4000C94B40090
:100020000C94B4000C94B4000C94B4000C94B40080
:100030000C94B4000C94B4000C94B4000C94B40070
:100040000C94B4000C94B4000C94B4000C94B40060
:100050000C94B4000C94B4000C94B4000C940F02F3
:100060000C94B4000C9483020C9459020C94B400C8
:100070000C94B4000C94B4000C94B4000C94B40030
:100080000C94B4000C94B4000C94B4000C94B40020
:100090000C94B4000C94B4000C94B4000C94B40010
:1000A0000C94B4000C94B4000C94B4000C94B40000
:1000B0000C94B4000C94B4000C94B4000C94B400F0
:1000C0000C94B4000C94B4000C94B4000C94B400E0
:1000D0000C94B4000C94B4000C94B4000C94B400D0
:1000E0000C94B4000C9439010C9417010C94080181
:1000F0000C9471010C94DB000C94FC030C94BE0175
:100100000C942B01FC0311241FBECFEFD1E2DEBF04
:10011000CDBF00E00CBF12E0A0E0B2E0EAEAF8E0F8
:1001200000E00BBF02C007900D92A631B107D9F7CE
:1001300022E0A6E1B2E001C01D92AC3BB207E1F7BC
:1001400010E0C3E8D0E000E006C021970109802F4D
:10015000FE010E944B04C238D10780E00807A9F7CE
:100160000E94B9020C9453040C9400003FB7F89419
:100170008091B8029091B902A091BA02B091BB02ED
:1001800026B5A89B05C02F3F19F00196A11DB11DF2
:100190003FBFBA2FA92F982F8827BC01CD01620F2E
:1001A000711D811D911D42E0660F771F881F991FE9
:1001B0004A95D1F70895AF92BF92CF92DF92EF9216
:1001C000FF920F931F93CF93DF936C017B018B0101
:1001D000040F151FEB015E01AE18BF08C017D10751
:1001E00059F06991D601ED91FC910190F081E02DDB
:1001F000C6011995892B79F7C501DF91CF911F9120
:100200000F91FF90EF90DF90CF90BF90AF90089547
:10021000FC01538D448D252F30E0842F90E0821B0C
:10022000930B541710F0CF96089501970895FC0191
:10023000918D828D981761F0A28DAE0FBF2FB11DE9
:100240005D968C91928D9F5F9F73928F90E0089541
:100250008FEF9FEF0895FC01918D828D981731F0FB
:10026000828DE80FF11D858D90E008958FEF9FEF4F
:100270000895FC01918D228D892F90E0805C9F4F25
:10028000821B91098F739927089586E192E00E945D
:10029000390121E0892B09F420E0822F0895FC0127
:1002A000A48DA80FB92FB11DA35ABF4F2C91848DD7
:1002B00090E001968F739927848FA689B7892C9334
:1002C000A089B1898C91837080648C93938D848D87
:1002D000981306C00288F389E02D80818F7D80838A
:1002E0000895EF92FF920F931F93CF93DF93EC014A
:1002F00081E0888F9B8D8C8D98131AC0E889F989CD
:10030000808185FF15C09FB7F894EE89FF896083CF
:10031000E889F98980818370806480839FBF81E050
:1003200090E0DF91CF911F910F91FF90EF90089592
:10033000F62E0B8D10E00F5F1F4F0F731127E02E6D
:100340008C8D8E110CC00FB607FCFACFE889F989A5
:10035000808185FFF5CFCE010E944F01F1CFEB8D5B
:10036000EC0FFD2FF11DE35AFF4FF0829FB7F89479
:100370000B8FEA89FB8980818062CFCFCF93DF9397
:10038000EC01888D8823B9F0AA89BB89E889F989AD
:100390008C9185FD03C0808186FD0DC00FB607FCE2
:1003A000F7CF8C9185FFF2CF808185FFEDCFCE0115
:1003B0000E944F01E9CFDF91CF91089580E090E056
:1003C000892B29F00E94450181110E94000080E0E4
:1003D00090E0892B49F080E090E0892B29F00E9481
:1003E000000081110E94000080E090E0892B49F01C
:1003F00080E090E0892B29F00E94000081110E948A
:10040000000080E090E0892B49F080E090E0892BAB
:1004100029F00E94000081110C94000008951F92A1
:100420000F920FB60F9211242F933F938F939F93A8
:10043000AF93BF938091B4029091B502A091B602A0
:10044000B091B7023091B30223E0230F2D3758F556
:100450000196A11DB11D2093B3028093B402909325
:10046000B502A093B602B093B7028091B802909102
:10047000B902A091BA02B091BB020196A11DB11DB3
:100480008093B8029093B902A093BA02B093BB02D2
:10049000BF91AF919F918F913F912F910F900FBE80
:1004A0000F901F90189526E8230F0296A11DB11DED
:1004B000D2CF1F920F920FB60F9211240BB60F924C
:1004C0002F933F934F935F936F937F938F939F935C
:1004D000AF93BF93EF93FF9386E192E00E944F01A9
:1004E000FF91EF91BF91AF919F918F917F916F910C
:1004F0005F914F913F912F910F900BBE0F900FBEC8
:100500000F901F9018951F920F920FB60F92112403
:100510000BB60F922F938F939F93EF93FF93E091DE
:100520002602F09127028081E0912C02F0912D02A9
:1005300082FD1DC0908180912F028F5F8F7320916B
:100540003002821741F0E0912F02F0E0EA5EFD4FA9
:10055000958F80932F02FF91EF919F918F912F9113
:100560000F900BBE0F900FBE0F901F9018958081BB
:10057000F2CFCF93DF93CDB7DEB7A1970FB6F89444
:10058000DEBF0FBECDBF789484B5826084BD84B5D4
:10059000816084BD85B5826085BD85B5816085BD7E
:1005A00080916E00816080936E0010928100809136
:1005B00081008260809381008091810081608093BE
:1005C0008100809180008160809380008091B100E3
:1005D00084608093B1008091B00081608093B0000E
:1005E0008091910082608093910080919100816060
:1005F0008093910080919000816080939000809121
:10060000A10082608093A1008091A100816080930D
:10061000A1008091A00081608093A00080912101C1
:10062000826080932101809121018160809321016A
:100630008091200181608093200180917A00846004
:1006400080937A0080917A00826080937A00809112
:100650007A00816080937A0080917A00806880932C
:100660007A001092C100E0912602F091270282E008
:100670008083E0912202F09123021082E091240213
:10068000F09125028FEC808310922E02E0912A02D5
:10069000F0912B0286E08083E0912802F0912902FC
:1006A000808180618083E0912802F091290280811D
:1006B00088608083E0912802F0912902808180681F
:1006C0008083E0912802F091290280818F7D8083D0
:1006D00010E49AE0892E912CA12CB12C80917B0002
:1006E000877F80937B0010937C0080917A008064E8
:1006F00080937A0080917A0086FDFCCFC0907800CC
:10070000D09079000D2C000CEE08FF08F7FE5EC0BB
:100710006DE286E192E00E94710122273327A90150
:100720002C193D094E095F0919A2CE0181967C0161
:10073000CA01B901A50194010E942904605DF70175
:1007400062937F01211531054105510589F7E114B7
:10075000F10461F001900020E9F73197AF014E19E3
:100760005F09B70186E192E00E94DB0042E050E0C1
:1007700062E172E086E192E00E94DB000E94B60036
:100780002B013C0188EEC82E83E0D82EE12CF12C01
:100790000E94B6006419750986099709683E73407E
:1007A00081059105A8F3F1E0CF1AD108E108F1081D
:1007B00028EE420E23E0521E611C711CC114D104AC
:1007C000E104F10429F70E94DE0188CFA701960118
:1007D00019A2CE0181967C01CA01B901A50194013B
:1007E0000E942904605DF70162937F0121153105A4
:1007F0004105510589F7ABCFE6E1F2E013821282A1
:1008000088EE93E0A0E0B0E084839583A683B7836D
:1008100084E092E09183808385EC90E095878487E3
:1008200084EC90E09787868780EC90E0918B808BBA
:1008300081EC90E0938B828B82EC90E0958B848BA3
:1008400086EC90E0978B868B118E128E138E148E11
:100850000895A1E21A2EAA1BBB1BFD010DC0AA1F01
:10086000BB1FEE1FFF1FA217B307E407F50720F019
:10087000A21BB30BE40BF50B661F771F881F991F94
:100880001A9469F760957095809590959B01AC01DD
:10089000BD01CF010895EE0FFF1F881F8BBF07908A
:0A08A000F691E02D1994F894FFCFB3
:1008AA00000000007101DB000801BE0139011701D7
:0608BA002B010D0A0000F5
:00000001FF
