:100000000C9424010C9438010C9438010C943801A0
:100010000C9438010C9438010C9438010C9438017C
:100020000C9438010C9438010C9438010C9438016C
:100030000C9438010C9438010C9438010C9438015C
:100040000C9438010C9438010C9438010C9438014C
:100050000C9438010C9438010C9438010C94C601AE
:100060000C9438010C9438010C9438010C9438012C
:100070000C9438010C9438010C9438010C9438011C
:100080000C9438010C9438010C9438010C9438010C
:100090000C9438010C9438010C9438010C943801FC
:1000A0000C9438010C9438010C9438010C943801EC
:1000B0000C9438010C9438010C9438010C943801DC
:1000C0000C9438010C9438010C9438010C943801CC
:1000D0000C9438010C9438010C9438010C943801BC
:1000E0000C9438010C948F010C9462010C946601FD
:1000F0000C946D010C9458010C945E010C946A01EF
:100100000C9473010C948B010C949D010C94990137
:100110000C947D010C9498010C9481010C9477014E
:100120000C9485010C949301000021002400270009
:100130002A002D00300033000101000004010701F6
:100140000A01000020002300260029002C002F00B7
:100150003200000100000301060109010000220035
:10016000250028002B002E00310034000201000081
:10017000050108010B010505050507050808080824
:10018000020202020A0A080804040404010101012F
:10019000010101010303030303030303040707072A
:1001A0000C0C0C0C0C0C0C0C0202020206060606CF
:1001B000060606060B0B0B0B0B0B0B0B010210209C
:1001C000200808102040102040800201020108048D
:1001D0000201010204081020408080402010080421
:1001E000020180040201804020100804020108047A
:1001F00002010102040810204080010204081020BE
:10020000408000000A0B02090C0D0E0807030401D0
:1002100000000000000000000000000000000000DE
:1002200000000000000000000000000000001211AB
:1002300010000000000000000000000000000000AE
:10024000000000000000000011241FBECFEFD1E22B
:10025000DEBFCDBF00E00CBF22E0A0E0B2E001C0F5
:100260001D92AA30B207E1F70E9410020C943A03E3
:100270000C9400008150823108F05AC0E82FF0E061
:100280008827EA5BFE4F8F4F0C94320366016A01A8
:1002900058015E01620198016D01730177017D01D2
:1002A000810185018B018F019801930199019D01C5
:1002B000809180008F7780938000089580918000E6
:1002C0008F7DF9CF80918000877FF5CF84B58F77C0
:1002D00084BD089584B58F7DFBCF8091B0008F776A
:1002E0008093B00008958091B0008F7DF9CF809108
:1002F00090008F77809390000895809190008F7D7B
:10030000F9CF80919000877FF5CF8091A0008F7703
:100310008093A00008958091A0008F7DF9CF8091F7
:10032000A000877FF5CF809120018F7780932001F7
:100330000895809120018F7DF9CF80912001877FE2
:10034000F5CF3FB7F8948091060290910702A091F3
:100350000802B091090226B5A89B05C02F3F19F0ED
:100360000196A11DB11D3FBFBA2FA92F982F882735
:10037000BC01CD01620F711D811D911D42E0660F10
:10038000771F881F991F4A95D1F708951F920F92E2
:100390000FB60F9211242F933F938F939F93AF9398
:1003A000BF938091020290910302A0910402B09148
:1003B00005023091010223E0230F2D3758F50196F5
:1003C000A11DB11D209301028093020290930302AC
:1003D000A0930402B0930502809106029091070257
:1003E000A0910802B09109020196A11DB11D809350
:1003F000060290930702A0930802B0930902BF91EE
:10040000AF919F918F913F912F910F900FBE0F90C1
:100410001F90189526E8230F0296A11DB11DD2CF7B
:10042000789484B5826084BD84B5816084BD85B5CF
:10043000826085BD85B5816085BD80916E008160DB
:1004400080936E0010928100809181008260809381
:100450008100809181008160809381008091800083
:100460008160809380008091B10084608093B100AE
:100470008091B00081608093B00080919100826093
:100480008093910080919100816080939100809190
:1004900090008160809390008091A10082608093A1
:1004A000A1008091A10081608093A1008091A000B3
:1004B00081608093A000809121018260809321015E
:1004C00080912101816080932101809120018160D0
:1004D0008093200180917A00846080937A008091DB
:1004E0007A00826080937A0080917A0081608093A4
:1004F0007A0080917A00806880937A001092C1001F
:10050000C9ECD1E0FE01249103E811E0F8018491E7
:10051000882399F090E0880F991FFC01E85DFE4F59
:10052000A591B491FC01E45AFE4F859194918FB747
:10053000F8949C91292B2C938FBF5EEB252E51E0D4
:10054000352EF101249168E7862E61E0962EF401A4
:1005500084918823C9F090E0880F991FFC01E85D21
:10056000FE4FA591B491FC01E45AFE4F4591549180
:100570009FB7F8943C91822F809583238C93FA0146
:100580008081282B20839FBF30E0A32E30E0B32E44
:10059000E4E0F2E08491F101F490F401E490E110E0
:1005A00034C0E0900002F1E0EF26E0920002EFE0BC
:1005B000F2E08491FE01F490F801D490D1103BC098
:1005C0000E94A1012B013C0188ECC82ED12CE12C0A
:1005D000F12C0E94A1016419750986099709683EEA
:1005E000734081059105A8F3F1E0CF1AD108E10825
:1005F000F10828EE420E23E0521E611C711CC1144A
:10060000D104E104F10429F70FC081110E943A01DD
:10061000EE2DF0E0EE0FFF1FEE5BFE4FA591B491C3
:100620008C91F82209F4BDCFA114B10409F4B0CF24
:100630000E940000ADCF81110E943A01ED2DF0E043
:10064000EE0FFF1FE45AFE4FA591B4918FB7F894B7
:100650009C91E11005C0F094F922FC928FBFB0CFBD
:10066000F92AFBCFEE0FFF1F881F8BBF0790F69173
:08067000E02D1994F894FFCF6E
:00000001FF
