:100000000C9428010C9459010C9459010C94590139
:100010000C9459010C9459010C9459010C945901F8
:100020000C9459010C9459010C9459010C945901E8
:100030000C9459010C9459010C9459010C945901D8
:100040000C9459010C9459010C9459010C945901C8
:100050000C9459010C9459010C9459010C947B0394
:100060000C9459010C94EF030C94C5030C945901A2
:100070000C9459010C9459010C9459010C94590198
:100080000C9459010C9459010C9459010C94590188
:100090000C9459010C9459010C9459010C94590178
:1000A0000C9459010C9459010C9459010C94590168
:1000B0000C9459010C9459010C9459010C94590158
:1000C0000C9459010C9459010C9459010C94590148
:1000D0000C9459010C9459010C9459010C94590138
:1000E0000C9459010C94D0020C94D3010C949802F6
:1000F0000C94CB010C94CF010C9487010C94B701A4
:100100000C94D9010C946B050C949E010C94A201E3
:100110000C943A020C94A6010C94AD010C94AA0123
:100120000C948C010C94C5010C94DD010C94BD0160
:100130000C941D030C94B3010C9476020C9467028A
:100140000C94C1010C948A020000210024002700B5
:100150002A002D00300033000101000004010701D6
:100160000A0100002200250028002B002E0031008B
:10017000340002010000050108010B010505050519
:10018000070508080808020202020A0A080804040F
:10019000040401010101010101010303030303033D
:1001A0000303040707070C0C0C0C0C0C0C0C0202CC
:1001B000020206060606060606060B0B0B0B0B0BC9
:1001C0000B0B010210202008081020401020408056
:1001D000020102010804020101020408102040800B
:1001E0008040201008040201800402018040201099
:1001F00008040201080402010102040810204080E2
:10020000010204081020408000000A0B02090C0DB6
:100210000E080703040100000000000000000000B9
:1002200000000000000000000000000000000000CE
:10023000000000001211100000000000000000008B
:1002400000000000000000000000000000006B053E
:1002500011241FBECFEFD1E2DEBFCDBF00E00CBF47
:1002600012E0A0E0B2E0E8E8FBE000E00BBF02C073
:1002700007900D92A831B107D9F722E0A8E1B2E0CA
:1002800001C01D92AE3BB207E1F711E0C8E2D1E038
:1002900000E006C021970109802FFE010E94BA05E7
:1002A000C732D10780E00807A9F70E9425040C9403
:1002B000C2050C940000382FE5E1F2E08491EFECE8
:1002C000F1E02491E9E8F1E09491992309F435C033
:1002D000882311F181508231F8F4E82FF0E088276B
:1002E000EB58FE4F8F4F0C94BA05A601AA01870167
:1002F0009E01A2018C01AD01B301B701BD01C10195
:10030000C501CB01CF018C01D301D901DD01809161
:1003100080008F7780938000E92FF0E0EE0FFF1FC1
:10032000EE59FE4FA591B4918FB7F894EC9131112D
:1003300048C020952E232C938FBF08958091800074
:100340008F7DE8CF80918000877FE4CF84B58F7761
:1003500084BDE2CF84B58F7DFBCF8091B0008F77D5
:100360008093B000D9CF8091B0008F7DF9CF80917C
:1003700090008F7780939000CFCF809190008F7DF9
:10038000F9CF80919000877FF5CF8091A0008F7783
:100390008093A000C1CF8091A0008F7DF9CF809184
:1003A000A000877FF5CF809120018F778093200177
:1003B000B3CF809120018F7DF9CF80912001877F7D
:1003C000F5CF2E2BB8CF3FB7F89480911D029091B6
:1003D0001E02A0911F02B091200226B5A89B05C065
:1003E0002F3F19F00196A11DB11D3FBFBA2FA92FB4
:1003F000982F8827BC01CD01620F711D811D911DB1
:1004000042E0660F771F881F991F4A95D1F708951C
:100410008F929F92AF92BF92CF92DF92EF92FF9214
:100420004B015C010E94E3016B017C010E94E3012E
:100430006C197D098E099F09683E734081059105FD
:10044000A8F321E0821A9108A108B10888EEC80E2D
:1004500083E0D81EE11CF11C81149104A104B104B5
:1004600029F7FF90EF90DF90CF90BF90AF909F90D3
:100470008F900895AF92BF92CF92DF92EF92FF924A
:100480000F931F93CF93DF936C017B018B01040FBC
:10049000151FEB015E01AE18BF08C017D10759F058
:1004A0006991D601ED91FC910190F081E02DC6019A
:1004B0001995892B79F7C501DF91CF911F910F9184
:1004C000FF90EF90DF90CF90BF90AF900895FC0128
:1004D000538D448D252F30E0842F90E0821B930BA9
:1004E000541710F0CF96089501970895FC01918D4F
:1004F000828D981761F0A28DAE0FBF2FB11D5D9652
:100500008C91928D9F5F9F73928F90E008958FEFF3
:100510009FEF0895FC01918D828D981731F0828DA7
:10052000E80FF11D858D90E008958FEF9FEF0895FE
:10053000FC01918D228D892F90E0805C9F4F821B62
:1005400091098F739927089581E292E00E949802A1
:1005500021E0892B09F420E0822F0895FC01A48D6D
:10056000A80FB92FB11DA35ABF4F2C91848D90E0D5
:1005700001968F739927848FA689B7892C93A089B8
:10058000B1898C91837080648C93938D848D981342
:1005900006C00288F389E02D80818F7D80830895D5
:1005A000EF92FF920F931F93CF93DF93EC0181E0C3
:1005B000888F9B8D8C8D98131AC0E889F98980816A
:1005C00085FF15C09FB7F894EE89FF896083E8899D
:1005D000F98980818370806480839FBF81E090E08F
:1005E000DF91CF911F910F91FF90EF900895F62E1C
:1005F0000B8D10E00F5F1F4F0F731127E02E8C8DB6
:100600008E110CC00FB607FCFACFE889F9898081FA
:1006100085FFF5CFCE010E94AE02F1CFEB8DEC0F3E
:10062000FD2FF11DE35AFF4FF0829FB7F8940B8F17
:10063000EA89FB8980818062CFCFCF93DF93EC0181
:10064000888D8823B9F0AA89BB89E889F9898C91BA
:1006500085FD03C0808186FD0DC00FB607FCF7CF76
:100660008C9185FFF2CF808185FFEDCFCE010E9476
:10067000AE02E9CFDF91CF91089580E090E0892B21
:1006800029F00E94A40281110E94000080E090E005
:10069000892B49F080E090E0892B29F00E9400002E
:1006A00081110E94000080E090E0892B49F080E0F9
:1006B00090E0892B29F00E94000081110E94000027
:1006C00080E090E0892B49F080E090E0892B29F0D0
:1006D0000E94000081110C9400000895FC0101901B
:1006E0000020E9F73197AF01481B590BBC0181E2AB
:1006F00092E00C943A021F920F920FB60F921124BF
:100700002F933F938F939F93AF93BF938091190241
:1007100090911A02A0911B02B0911C023091180214
:1007200023E0230F2D3758F50196A11DB11D20930D
:1007300018028093190290931A02A0931B02B0939F
:100740001C0280911D0290911E02A0911F02B09187
:1007500020020196A11DB11D80931D0290931E02DF
:10076000A0931F02B0932002BF91AF919F918F91F0
:100770003F912F910F900FBE0F901F90189526E874
:10078000230F0296A11DB11DD2CF1F920F920FB65B
:100790000F9211240BB60F922F933F934F935F93B9
:1007A0006F937F938F939F93AF93BF93EF93FF9339
:1007B00081E292E00E94AE02FF91EF91BF91AF9172
:1007C0009F918F917F916F915F914F913F912F9169
:1007D0000F900BBE0F900FBE0F901F9018951F9299
:1007E0000F920FB60F9211240BB60F922F938F9387
:1007F0009F93EF93FF93E0913102F0913202808159
:10080000E0913702F091380282FD1DC09081809105
:100810003A028F5F8F7320913B02821741F0E09183
:100820003A02F0E0EF5DFD4F958F80933A02FF9121
:10083000EF919F918F912F910F900BBE0F900FBE54
:100840000F901F9018958081F2CFCF93DF93CDB793
:10085000DEB7A1970FB6F894DEBF0FBECDBF789478
:1008600084B5826084BD84B5816084BD85B58260B5
:1008700085BD85B5816085BD80916E008160809366
:100880006E001092810080918100826080938100CF
:1008900080918100816080938100809180008160DF
:1008A000809380008091B10084608093B10080913A
:1008B000B00081608093B00080919100826080934D
:1008C00091008091910081608093910080919000CF
:1008D0008160809390008091A10082608093A1004C
:1008E0008091A10081608093A1008091A00081602F
:1008F0008093A000809121018260809321018091EA
:100900002101816080932101809120018160809389
:10091000200180917A00846080937A0080917A002F
:10092000826080937A0080917A00816080937A005F
:1009300080917A00806880937A001092C100EFEC79
:10094000F1E02491E9E8F1E08491882399F090E0C6
:10095000880F991FFC01E85BFE4FA591B491FC0143
:10096000EE59FE4F859194918FB7F894EC91E22B5C
:10097000EC938FBFE0913102F091320282E08083EC
:10098000E0912D02F0912E021082E0912F02F09161
:1009900030028FEC808310923902E0913502F091A1
:1009A000360286E08083E0913302F0913402808148
:1009B00080618083E0913302F0913402808188600D
:1009C0008083E0913302F0913402808180688083DB
:1009D000E0913302F091340280818F7D808310E4B6
:1009E0008AE0882E912CA12CB12C81E00E945B0121
:1009F00060ED77E080E090E00E94080280E00E94D5
:100A00005B0168EE73E080E090E00E94080282E102
:100A100092E00E946E0384E192E00E946E03809156
:100A20007B00877F80937B0010937C0080917A000D
:100A3000806480937A0080917A0086FDFCCFC0901C
:100A40007800D09079000D2C000CEE08FF08F7FE1E
:100A50002CC06DE281E292E00E94D002222733276F
:100A6000A9012C193D094E095F0919A2CE018196F1
:100A70007C01CA01B901A50194010E949805605D3D
:100A8000F70162937F01211531054105510589F771
:100A9000E114F10419F0C7010E946E0384E192E0B1
:100AA0000E946E030E943D03A0CFA701960119A2E8
:100AB000CE0181967C01CA01B901A50194010E9471
:100AC0009805605DF70162937F01211531054105AD
:100AD000510589F7DDCFE1E2F2E01382128288EE60
:100AE00093E0A0E0B0E084839583A683B78384E09D
:100AF00092E09183808385EC90E09587848784ECF5
:100B000090E09787868780EC90E0918B808B81ECDA
:100B100090E0938B828B82EC90E0958B848B86ECBB
:100B200090E0978B868B118E128E138E148E089503
:100B3000A1E21A2EAA1BBB1BFD010DC0AA1FBB1FE1
:100B4000EE1FFF1FA217B307E407F50720F0A21B53
:100B5000B30BE40BF50B661F771F881F991F1A94C0
:100B600069F760957095809590959B01AC01BD01EA
:100B7000CF010895EE0FFF1F881F8BBF0790F691DE
:080B8000E02D1994F894FFCF59
:100B880000000000D0023A0267021D0398027602B4
:080B98008A0242000D0A000070
:00000001FF
