:100000000C9424010C9438010C9438010C943801A0
:100010000C9438010C9438010C9438010C9438017C
:100020000C9438010C9438010C9438010C9438016C
:100030000C9438010C9438010C9438010C9438015C
:100040000C9438010C9438010C9438010C9438014C
:100050000C9438010C9438010C9438010C9426024D
:100060000C9438010C9438010C9438010C9438012C
:100070000C9438010C9438010C9438010C9438011C
:100080000C9438010C9438010C9438010C9438010C
:100090000C9438010C9438010C9438010C943801FC
:1000A0000C9438010C9438010C9438010C943801EC
:1000B0000C9438010C9438010C9438010C943801DC
:1000C0000C9438010C9438010C9438010C943801CC
:1000D0000C9438010C9438010C9438010C943801BC
:1000E0000C9438010C948F010C9462010C946601FD
:1000F0000C946D010C9458010C945E010C946A01EF
:100100000C9473010C948B010C949D010C94990137
:100110000C947D010C9498010C9481010C9477014E
:100120000C9485010C949301000021002400270009
:100130002A002D00300033000101000004010701F6
:100140000A01000020002300260029002C002F00B7
:100150003200000100000301060109010000220035
:10016000250028002B002E00310034000201000081
:10017000050108010B010505050507050808080824
:10018000020202020A0A080804040404010101012F
:10019000010101010303030303030303040707072A
:1001A0000C0C0C0C0C0C0C0C0202020206060606CF
:1001B000060606060B0B0B0B0B0B0B0B010210209C
:1001C000200808102040102040800201020108048D
:1001D0000201010204081020408080402010080421
:1001E000020180040201804020100804020108047A
:1001F00002010102040810204080010204081020BE
:10020000408000000A0B02090C0D0E0807030401D0
:1002100000000000000000000000000000000000DE
:1002200000000000000000000000000000001211AB
:1002300010000000000000000000000000000000AE
:10024000000000000000000011241FBECFEFD1E22B
:10025000DEBFCDBF00E00CBF22E0A0E0B2E001C0F5
:100260001D92A930B207E1F70E9470020C940B03B3
:100270000C9400008150823108F05AC0E82FF0E061
:100280008827EA5BFE4F8F4F0C94030366016A01D7
:1002900058015E01620198016D01730177017D01D2
:1002A000810185018B018F019801930199019D01C5
:1002B000809180008F7780938000089580918000E6
:1002C0008F7DF9CF80918000877FF5CF84B58F77C0
:1002D00084BD089584B58F7DFBCF8091B0008F776A
:1002E0008093B00008958091B0008F7DF9CF809108
:1002F00090008F77809390000895809190008F7D7B
:10030000F9CF80919000877FF5CF8091A0008F7703
:100310008093A00008958091A0008F7DF9CF8091F7
:10032000A000877FF5CF809120018F7780932001F7
:100330000895809120018F7DF9CF80912001877FE2
:10034000F5CF1F93CF93DF93EFE0F2E09491E9ECC8
:10035000F1E0D491E3E8F1E0C491CC23B9F0182F97
:10036000992319F0892F0E943A01EC2FF0E0EE0F4B
:10037000FF1FE45AFE4FA591B4918FB7F894EC910A
:10038000111108C0D095DE23DC938FBFDF91CF9190
:100390001F910895DE2BF8CFCF93DF93282F30E005
:1003A000F901EE5FFD4F8491F901E454FE4FD491C1
:1003B000F901EA58FE4FC491CC23A1F081110E94AB
:1003C0003A01EC2FF0E0EE0FFF1FEE5BFE4FA59120
:1003D000B491EC91ED2381E090E009F480E0DF91AD
:1003E000CF91089580E090E0FACFCF93DF9390E033
:1003F000FC01E454FE4F24918A589E4FFC018491E5
:100400008823D1F090E0880F991FFC01E85DFE4F32
:10041000A591B491FC01E45AFE4FC591D49162308C
:1004200071F49FB7F8943C91822F809583238C932D
:10043000E8812E2B28839FBFDF91CF9108958FB73E
:10044000F894EC912E2B2C938FBFF6CF1F920F9226
:100450000FB60F9211242F933F938F939F93AF93D7
:10046000BF938091050290910602A0910702B0917E
:1004700008023091040223E0230F2D3758F501962E
:10048000A11DB11D209304028093050290930602E2
:10049000A0930702B093080280910002909101029C
:1004A000A0910202B09103020196A11DB11D80939B
:1004B000000290930102A0930202B0930302BF9145
:1004C000AF919F918F913F912F910F900FBE0F9001
:1004D0001F90189526E8230F0296A11DB11DD2CFBB
:1004E000789484B5826084BD84B5816084BD85B50F
:1004F000826085BD85B5816085BD80916E0081601B
:1005000080936E00109281008091810082608093C0
:1005100081008091810081608093810080918000C2
:100520008160809380008091B10084608093B100ED
:100530008091B00081608093B000809191008260D2
:1005400080939100809191008160809391008091CF
:1005500090008160809390008091A10082608093E0
:10056000A1008091A10081608093A1008091A000F2
:1005700081608093A000809121018260809321019D
:10058000809121018160809321018091200181600F
:100590008093200180917A00846080937A0080911A
:1005A0007A00826080937A0080917A0081608093E3
:1005B0007A0080917A00806880937A001092C1005E
:1005C00062E083E00E94F50162E085E00E94F501AF
:1005D00061E08DE00E94F501C0E0D0E083E00E9480
:1005E000CC01892B19F481E00E94A10185E00E94D1
:1005F000CC01892B19F480E00E94A101209771F3AE
:100600000E940000EBCFEE0FFF1F881F8BBF0790EB
:0A061000F691E02D1994F894FFCF45
:00000001FF
