:100000000C9483000C94B4000C94B4000C94B400D1
:100010000C94B4000C94B4000C94B4000C94B40090
:100020000C94B4000C94B4000C94B4000C94B40080
:100030000C94B4000C94B4000C94B4000C94B40070
:100040000C94B4000C94B4000C94B4000C94B40060
:100050000C94B4000C94B4000C94B4000C94A7025B
:100060000C94B4000C941B030C94F1020C94B40097
:100070000C94B4000C94B4000C94B4000C94B40030
:100080000C94B4000C94B4000C94B4000C94B40020
:100090000C94B4000C94B4000C94B4000C94B40010
:1000A0000C94B4000C94B4000C94B4000C94B40000
:1000B0000C94B4000C94B4000C94B4000C94B400F0
:1000C0000C94B4000C94B4000C94B4000C94B400E0
:1000D0000C94B4000C94B4000C94B4000C94B400D0
:1000E0000C94B4000C941E010C942D010C944F013F
:1000F0000C9487010C9456040C94F1000C94D401D8
:100100000C944101560411241FBECFEFD1E2DEBF93
:10011000CDBF00E00CBF12E0A0E0B2E0E8E2FBE0FF
:1001200000E00BBF02C007900D92AA31B107D9F7CA
:1001300022E0AAE1B2E001C01D92A03CB207E1F7C3
:1001400010E0C3E8D0E000E006C021970109802F4D
:10015000FE010E948A05C238D10780E00807A9F78E
:100160000E9451030C9492050C94000080917B0036
:10017000877F80937B0080E480937C0080917A006D
:10018000806480937A0080917A0086FDFCCF809114
:1001900078009091790008953FB7F89480911F02FC
:1001A00090912002A0912102B091220226B5A89B35
:1001B00005C02F3F19F00196A11DB11D3FBFBA2FF9
:1001C000A92F982F8827BC01CD01620F711D811DB9
:1001D000911D42E0660F771F881F991F4A95D1F73E
:1001E0000895AF92BF92CF92DF92EF92FF920F935A
:1001F0001F93CF93DF936C017B018B01040F151FBD
:10020000EB015E01AE18BF08C017D10759F0699124
:10021000D601ED91FC910190F081E02DC601199578
:10022000892B79F7C501DF91CF911F910F91FF9035
:10023000EF90DF90CF90BF90AF900895FC01538D69
:10024000448D252F30E0842F90E0821B930B5417B0
:1002500010F0CF96089501970895FC01918D828D3D
:10026000981761F0A28DAE0FBF2FB11D5D968C91D6
:10027000928D9F5F9F73928F90E008958FEF9FEF15
:100280000895FC01918D828D981731F0828DE80FD1
:10029000F11D858D90E008958FEF9FEF0895FC018B
:1002A000918D228D892F90E0805C9F4F821B910958
:1002B0008F739927089583E292E00E944F0121E015
:1002C000892B09F420E0822F0895FC01A48DA80F4A
:1002D000B92FB11DA35ABF4F2C91848D90E0019688
:1002E0008F739927848FA689B7892C93A089B189A8
:1002F0008C91837080648C93938D848D981306C049
:100300000288F389E02D80818F7D80830895EF92AC
:10031000FF920F931F93CF93DF93EC0181E0888FBF
:100320009B8D8C8D98131AC0E889F989808185FF8F
:1003300015C09FB7F894EE89FF896083E889F98931
:1003400080818370806480839FBF81E090E0DF9133
:10035000CF911F910F91FF90EF900895F62E0B8D86
:1003600010E00F5F1F4F0F731127E02E8C8D8E1141
:100370000CC00FB607FCFACFE889F989808185FFA8
:10038000F5CFCE010E946501F1CFEB8DEC0FFD2F73
:10039000F11DE35AFF4FF0829FB7F8940B8FEA8963
:1003A000FB8980818062CFCFCF93DF93EC01888D72
:1003B0008823B9F0AA89BB89E889F9898C9185FDE0
:1003C00003C0808186FD0DC00FB607FCF7CF8C916E
:1003D00085FFF2CF808185FFEDCFCE010E946501C0
:1003E000E9CFDF91CF91089580E090E0892B29F04B
:1003F0000E945B0181110E94000080E090E0892B47
:1004000049F080E090E0892B29F00E9400008111E2
:100410000E94000080E090E0892B49F080E090E0AD
:10042000892B29F00E94000081110E94000080E0C9
:1004300090E0892B49F080E090E0892B29F00E9420
:10044000000081110C94000008958F929F92AF924A
:10045000BF920F931F93CF93DF93CDB7DEB7A197D2
:100460000FB6F894DEBF0FBECDBF19A2423008F41C
:100470004AE08E010F5D1F4F842E912CB12CA12CD0
:10048000A50194010E945905E62FB901CA01EA307D
:1004900044F5E05DD801EE938D01232B242B252B11
:1004A00079F790E080E0109769F0FD01019000205D
:1004B000E9F73197AF014A1B5B0BBD0183E292E084
:1004C0000E94F100A1960FB6F894DEBF0FBECDBF1B
:1004D000DF91CF911F910F91BF90AF909F908F9020
:1004E0000895E95CD7CF42E050E066E172E083E234
:1004F00092E00C94F100CF92DF92EF92FF92CF93B3
:10050000DF9397FF1BC06B017C016DE283E292E0F9
:100510000E948701EC0166277727CB016C197D09C2
:100520008E099F094AE00E9425028C0F9D1FDF91D2
:10053000CF91FF90EF90DF90CF9008954AE0DF9148
:10054000CF91FF90EF90DF90CF900C9425021F92F7
:100550000F920FB60F9211242F933F938F939F9377
:10056000AF93BF9380911B0290911C02A0911D023A
:10057000B0911E0230911A0223E0230F2D3758F557
:100580000196A11DB11D20931A0280931B02909326
:100590001C02A0931D02B0931E0280911F02909135
:1005A0002002A0912102B09122020196A11DB11D4D
:1005B00080931F0290932002A0932102B093220205
:1005C000BF91AF919F918F913F912F910F900FBE4F
:1005D0000F901F90189526E8230F0296A11DB11DBC
:1005E000D2CF1F920F920FB60F9211240BB60F921B
:1005F0002F933F934F935F936F937F938F939F932B
:10060000AF93BF93EF93FF9383E292E00E94650163
:10061000FF91EF91BF91AF919F918F917F916F91DA
:100620005F914F913F912F910F900BBE0F900FBE96
:100630000F901F9018951F920F920FB60F921124D2
:100640000BB60F922F938F939F93EF93FF93E091AD
:100650003302F09134028081E0913902F0913A0244
:1006600082FD1DC0908180913C028F5F8F7320912D
:100670003D02821741F0E0913C02F0E0ED5DFD4F5C
:10068000958F80933C02FF91EF919F918F912F91D5
:100690000F900BBE0F900FBE0F901F90189580818A
:1006A000F2CF789484B5826084BD84B5816084BDC6
:1006B00085B5826085BD85B5816085BD80916E0000
:1006C000816080936E001092810080918100826031
:1006D000809381008091810081608093810080916E
:1006E00080008160809380008091B100846080935D
:1006F000B1008091B00081608093B0008091910042
:10070000826080939100809191008160809391003C
:10071000809190008160809390008091A100826020
:100720008093A1008091A10081608093A1008091BD
:10073000A00081608093A00080912101826080935D
:10074000210180912101816080932101809120010C
:1007500081608093200180917A00846080937A0088
:1007600080917A00826080937A0080917A00816023
:1007700080937A0080917A00806880937A0010924A
:10078000C100E0913302F091340282E08083E09175
:100790002F02F09130021082E0913102F09132028A
:1007A0008FEC808310923B02E0913702F091380287
:1007B00086E08083E0913502F0913602808180618D
:1007C0008083E0913502F0913602808188608083D9
:1007D000E0913502F0913602808180688083E0915B
:1007E0003502F091360280818F7D80830E94B600B1
:1007F000BC01990F880B990B611571058105910555
:1008000011F00E941E059AE0492E512C612C712C8A
:100810000E94CF042CE231E040E050E00E94270526
:100820000E947B020E9473020E94CF04A3019201E6
:100830000E942705665F7F4F8F4F9F4F0E947B026C
:100840000E9473020E94B600BC01990F880B990B9D
:100850000E947B020E9473020E9473020E94CC00DD
:100860004B015C0188EEC82E83E0D82EE12CF12CE0
:100870000E94CC00681979098A099B09683E734077
:1008800081059105A8F321E0C21AD108E108F10819
:1008900088EE880E83E0981EA11CB11CC114D104FF
:1008A000E104F10429F70E94F401B2CFE3E2F2E09F
:1008B0001382128288EE93E0A0E0B0E084839583F7
:1008C000A683B78388E092E09183808385EC90E0F3
:1008D0009587848784EC90E09787868780EC90E00A
:1008E000918B808B81EC90E0938B828B82EC90E0FB
:1008F000958B848B86EC90E0978B868B118E128E75
:10090000138E148E08958F929F92AF92BF92CF92C2
:10091000DF92EF92FF92CF93DF93EC0168817981B0
:100920008A819B81611571058105910521F464E23D
:1009300079ED8BE597E02DE133EF41E050E00E9447
:10094000270549015A019B01AC01A7EAB1E40E94C5
:1009500046056B017C01ACEEB4EFA50194010E9449
:100960005405C60ED71EE81EF91EF7FE06C081E02C
:10097000C81AD108E10880E8F80AC882D982EA8258
:10098000FB82C701B6019F77DF91CF91FF90EF9077
:10099000DF90CF90BF90AF909F908F9008958F92EF
:1009A0009F92AF92BF92CF92DF92EF92FF926091AF
:1009B0000002709101028091020290910302611580
:1009C00071058105910521F464E279ED8BE597E0ED
:1009D0002DE133EF41E050E00E94270549015A0123
:1009E0009B01AC01A7EAB1E40E9446056B017C01C2
:1009F000ACEEB4EFA50194010E945405C60ED71EBB
:100A0000E81EF91EF7FE06C081E0C81AD108E10809
:100A100080E8F80AC0920002D0920102E09202023D
:100A2000F0920302C701B6019F77FF90EF90DF902D
:100A3000CF90BF90AF909F908F90089560930002E9
:100A40007093010280930202909303020895052E91
:100A500097FB1EF400940E943E0557FD07D00E94AC
:100A6000590507FC03D04EF40C943E055095409573
:100A7000309521953F4F4F4F5F4F0895909580954A
:100A8000709561957F4F8F4F9F4F08950E947B0512
:100A9000A59F900DB49F900DA49F800D911D1124D2
:100AA0000895B7FF0C9446050E944605821B930BE0
:100AB0000895A1E21A2EAA1BBB1BFD010DC0AA1F9F
:100AC000BB1FEE1FFF1FA217B307E407F50720F0B7
:100AD000A21BB30BE40BF50B661F771F881F991F32
:100AE0001A9469F760957095809590959B01AC017B
:100AF000BD01CF010895A29FB001B39FC001A39F84
:100B0000700D811D1124911DB29F700D811D112446
:100B1000911D0895EE0FFF1F881F8BBF0790F69160
:080B2000E02D1994F894FFCFB9
:100B280001000000000000008701F1001E01D4014F
:0A0B38004F012D0141010D0A0000DC
:00000001FF
