:100000000C9476010C94A7010C94A7010C94A70101
:100010000C94A7010C94A7010C94A7010C94A701C0
:100020000C94A7010C94A7010C94A7010C94A701B0
:100030000C94A7010C94A7010C94A7010C94A701A0
:100040000C94A7010C94A7010C94A7010C94A70190
:100050000C94A7010C94A7010C94A7010C941E0604
:100060000C94A7010C9492060C9468060C94A701BA
:100070000C94A7010C94A7010C94A7010C94A70160
:100080000C94A7010C94A7010C94A7010C94A70150
:100090000C94A7010C94A7010C94A7010C94A70140
:1000A0000C94A7010C94A7010C94A7010C94A70130
:1000B0000C94A7010C94A7010C94A7010C94A70120
:1000C0000C94A7010C94A7010C94A7010C94A70110
:1000D0000C94A7010C94A7010C94A7010C94A70100
:1000E0000C94A70108000000BE922449123EABAA5E
:1000F000AA2ABECDCCCC4C3E00000080BEABAAAA42
:10010000AA3E00000000BF000000803F0000000089
:1001100000084178D3BB4387D1133D190E3CC3BDC2
:100120004282AD2B3E68EC8276BED98FE1A93E4C6F
:1001300080EFFFBE01C4FF7F3F00000000000763A7
:100140004236B79BD8A71A39685618AEBAAB558C49
:100150001D3CB7CC5763BD6DEDFD753EF617723192
:10016000BF000000803F0C94D9010C94CF030C9485
:10017000CD010C9408020C94EC010C940C020C942C
:10018000F0010C94C7010C9407020C94F4010C9438
:10019000D5010C94E2010C94FE010C942D040C94F6
:1001A000B6080C94FC030C94E6010C94FA010C9430
:1001B000DC010C941F040C940B040C94D1010C94DE
:1001C000B2040C9465040C94020200002000230089
:1001D000260029002C002F0032000001000003013E
:1001E0000601090100000A0B02090C0D0E080703A5
:1001F00004010000000000000000000000000000FA
:1002000000000000000000000000000000000000EE
:1002100012111000000000000000000000000000AB
:100220000000000000000000000000002200250087
:1002300028002B002E0031003400020100000501CF
:1002400008010B0100002100240027002A002D00D6
:100250003000330001010000040107010A01050517
:100260000505070508080808020202020A0A08082C
:10027000040404040101010101010101030303035A
:1002800003030303040707070C0C0C0C0C0C0C0CE9
:100290000202020206060606060606060B0B0B0BFA
:1002A0000B0B0B0B0102102020080810204010201F
:1002B000408002010201080402010102040810202A
:1002C0004080804020100804020180040201804028
:1002D0002010080402010804020101020408102091
:1002E00040800102040810204080B60811241FBE7F
:1002F000CFEFD1E2DEBFCDBF00E00CBF12E0A0E047
:10030000B2E0E0EBF9E100E00BBF02C007900D9214
:10031000A83AB107D9F723E0A8EAB2E001C01D92DC
:10032000A435B207E1F711E0C6E7D1E000E006C06E
:1003300021970109802FFE010E94CE0CC537D107FD
:1003400080E00807A9F70E94C8060C94D60C0C940C
:1003500000008150823108F05AC0E82FF0E0882771
:10036000EB54FE4F8F4F0C94CE0CD501D901C70131
:10037000CD01D1010702DC01E201E601EC01F0014F
:10038000F401FA01FE010702020208020C02809148
:1003900080008F77809380000895809180008F7D0A
:1003A000F9CF80918000877FF5CF84B58F7784BDAA
:1003B000089584B58F7DFBCF8091B0008F778093B7
:1003C000B00008958091B0008F7DF9CF80919000AA
:1003D0008F77809390000895809190008F7DF9CF62
:1003E00080919000877FF5CF8091A0008F778093D8
:1003F000A00008958091A0008F7DF9CF8091A0008A
:10040000877FF5CF809120018F7780932001089519
:10041000809120018F7DF9CF80912001877FF5CFDA
:10042000CF93DF93282F30E0F901EC51FE4F8491F8
:10043000F901EC55FD4FD491F901E25AFD4FC491F9
:10044000CC23A1F081110E94A901EC2FF0E0EE0F66
:10045000FF1FE653FE4FA591B491EC91ED2381E08F
:1004600090E009F480E0DF91CF91089580E090E082
:10047000FACF1F93CF93DF93282F30E0F901EC518F
:10048000FE4F8491F901EC55FD4FD491F901E25AE8
:10049000FD4FC491CC23A9F0162F81110E94A90110
:1004A000EC2FF0E0EE0FFF1FE65DFD4FA591B4913C
:1004B0008FB7F894EC91111108C0D095DE23DC932E
:1004C0008FBFDF91CF911F910895DE2BF8CF3FB7FB
:1004D000F8948091AD029091AE02A091AF02B091DC
:1004E000B00226B5A89B05C02F3F19F00196A11DAB
:1004F000B11D3FBFBA2FA92F982F8827BC01CD016E
:10050000620F711D811D911D42E0660F771F881FCC
:10051000991F4A95D1F708958F929F92AF92BF92FB
:10052000CF92DF92EF92FF924B015C010E94670233
:100530006B017C010E9467026C197D098E099F097D
:10054000683E734081059105A8F321E0821A910865
:10055000A108B10888EEC80E83E0D81EE11CF11C8A
:1005600081149104A104B10429F7FF90EF90DF906A
:10057000CF90BF90AF909F908F9008954F925F92D1
:100580006F927F928F929F92AF92BF92CF92DF92A3
:10059000FF920F931F93CF93DF9300D01F921F9270
:1005A000CDB7DEB75C0119821A821B821C821D82C4
:1005B000F82E8C011127C8018C559D4F6C01FC0150
:1005C0002491025A1D4FF8018491882399F090E0FC
:1005D000880F991FFC01EC5BFD4FA591B491FC01C4
:1005E000E65DFD4F859194918FB7F8949C91292BEE
:1005F0002C938FBF60E08A2D0E94390262E170E087
:1006000080E090E00E948C0261E08A2D0E94390215
:100610008BE990E00197F1F7F601C490F80104919D
:100620000023C1F010E0000F111FF801EC5BFD4F3B
:10063000A591B491F801E65DFD4F259134919FB7E6
:10064000F8948C91C0948C218C93F9018081C822FC
:10065000C0829FBF01E117E28F2D0E941002892BFB
:10066000D1F401501109C1F78EEF9FEF0F900F9059
:100670000F900F900F90DF91CF911F910F91FF90EE
:10068000DF90CF90BF90AF909F908F907F906F90B2
:100690005F904F90089501E117E28F2D0E941002A4
:1006A000019721F401501109C1F7DECF28E2C22ED3
:1006B000D12C17E000E0AA24A394B12C91E1892E5B
:1006C00097E2992E8F2D0E941002892B29F4F1E0D8
:1006D0008F1A9108B9F7C8CF0E9467022B013C011D
:1006E00081E1882E87E2982E8F2D0E9410020197BB
:1006F00029F481E0881A9108B9F7B6CF0E94670201
:100700006419750986099709693271058105910592
:1007100078F0E1E0F0E0EC0FFD1FE00FF11D8081CB
:100720009501012E01C0220F0A94EAF7822B8083E3
:10073000111121C00F5F17E091E0C91AD10809F02B
:10074000BDCF8981282F30E03093B4022093B302CB
:100750002B81422F50E05093B6024093B502280FF0
:1007600081E090E03D81231302C090E080E091950C
:10077000819591097BCF1150DFCF8091B10290918B
:10078000B20297FF06C082E090E09093B20280939D
:10079000B1028091B1029091B2020C94BE02AF926C
:1007A000BF92CF92DF92EF92FF920F931F93CF935E
:1007B000DF936C017B018B01040F151FEB015E01C0
:1007C000AE18BF08C017D10759F06991D601ED9155
:1007D000FC910190F081E02DC6011995892B79F7E4
:1007E000C501DF91CF911F910F91FF90EF90DF90A6
:1007F000CF90BF90AF900895FC01538D448D252F6D
:1008000030E0842F90E0821B930B541710F0CF96AA
:10081000089501970895FC01918D828D981761F0DC
:10082000A28DAE0FBF2FB11D5D968C91928D9F5FF3
:100830009F73928F90E008958FEF9FEF0895FC01D2
:10084000918D828D981731F0828DE80FF11D858D85
:1008500090E008958FEF9FEF0895FC01918D228D18
:10086000892F90E0805C9F4F821B91098F7399279D
:10087000089587EB92E00E942D0421E0892B09F472
:1008800020E0822F0895FC01A48DA80FB92FB11D7F
:10089000A35ABF4F2C91848D90E001968F739927B6
:1008A000848FA689B7892C93A089B1898C91837094
:1008B00080648C93938D848D981306C00288F3898D
:1008C000E02D80818F7D80830895EF92FF920F93BA
:1008D0001F93CF93DF93EC0181E0888F9B8D8C8DEC
:1008E00098131AC0E889F989808185FF15C09FB7E0
:1008F000F894EE89FF896083E889F98980818370A3
:10090000806480839FBF81E090E0DF91CF911F9151
:100910000F91FF90EF900895F62E0B8D10E00F5F72
:100920001F4F0F731127E02E8C8D8E110CC00FB648
:1009300007FCFACFE889F989808185FFF5CFCE01E0
:100940000E944304F1CFEB8DEC0FFD2FF11DE35A14
:10095000FF4FF0829FB7F8940B8FEA89FB89808163
:100960008062CFCFCF93DF93EC01888D8823B9F0DD
:10097000AA89BB89E889F9898C9185FD03C08081AA
:1009800086FD0DC00FB607FCF7CF8C9185FFF2CF27
:10099000808185FFEDCFCE010E944304E9CFDF9136
:1009A000CF91089580E090E0892B29F00E943904CE
:1009B00081110E94000080E090E0892B49F080E0E6
:1009C00090E0892B29F00E94000081110E94000014
:1009D00080E090E0892B49F080E090E0892B29F0BD
:1009E0000E94000081110E94000080E090E0892BAD
:1009F00049F080E090E0892B29F00E9400008111ED
:100A00000C9400000895FC0101900020E9F7319753
:100A1000AF01481B590BBC0187EB92E00C94CF034C
:100A20008F929F92AF92BF920F931F93CF93DF93BA
:100A3000CDB7DEB7A1970FB6F894DEBF0FBECDBF1E
:100A400019A2423008F44AE08E010F5D1F4F842E38
:100A5000912CB12CA12CA50194010E94AC0CE62F85
:100A6000B901CA01EA30F4F4E05DD801EE938D01DA
:100A7000232B242B252B79F790E080E0109719F099
:100A8000CD010E940305A1960FB6F894DEBF0FBEFC
:100A9000CDBFDF91CF911F910F91BF90AF909F90ED
:100AA0008F900895E95CE1CF4F925F926F927F92B1
:100AB0008F929F92AF92BF92CF92DF92EF92FF926E
:100AC0006B017C01AC019B010E94C20B8823C1F029
:100AD00082E192E00E9403057C018EE192E00E9497
:100AE00003058E0D9F1DFF90EF90DF90CF90BF907C
:100AF000AF909F908F907F906F905F904F900895F0
:100B000046015701E894B7F82FEF3FEF4FE75FE753
:100B1000C501B4010E94C20B81110DC02FEF3FEF40
:100B20004FE75FE7C501B4010E94500918161CF495
:100B300086E192E0CFCF2FEF3FEF4FE75FE4C701B1
:100B4000B6010E94A80A18161CF48AE192E0C2CFEE
:100B50002FEF3FEF4FE75FECC701B6010E9450094E
:100B600087FDF3CF20E030E0A901C701B6010E9464
:100B70005009B12CA12C87FF0AC06DE287EB92E0EF
:100B80000E9465045C01F7FAF094F7F8F0942AE00B
:100B900037ED43EA5BE3C701B6010E94E4082B018D
:100BA0003C010E94C7096B017C010E94F6099B0170
:100BB000AC01C301B2010E94E3082B013C014AE0F1
:100BC000C701B6010E9410057C01EA0CFB1C6EE215
:100BD00087EB92E00E946504E80EF91E20E030E009
:100BE00040E251E4C301B2010E94050B2B013C011C
:100BF0000E94C7094B01B12CA12C4AE0C501B401E8
:100C00000E941005E80EF91EC501B4010E94F60904
:100C10009B01AC01C301B2010E94E30820E030E077
:100C200040E251E40E94050B0E94C70990E080E079
:100C30004AE00E941005E80EF91E4FCF1F920F9256
:100C40000FB60F9211242F933F938F939F93AF93DF
:100C5000BF938091A9029091AA02A091AB02B0919A
:100C6000AC023091A80223E0230F2D3758F50196EE
:100C7000A11DB11D2093A8028093A9029093AA02FE
:100C8000A093AB02B093AC028091AD029091AE0202
:100C9000A091AF02B091B0020196A11DB11D809349
:100CA000AD029093AE02A093AF02B093B002BF9199
:100CB000AF919F918F913F912F910F900FBE0F9009
:100CC0001F90189526E8230F0296A11DB11DD2CFC3
:100CD0001F920F920FB60F9211240BB60F922F9303
:100CE0003F934F935F936F937F938F939F93AF93B4
:100CF000BF93EF93FF9387EB92E00E944304FF9131
:100D0000EF91BF91AF919F918F917F916F915F9183
:100D10004F913F912F910F900BBE0F900FBE0F90F0
:100D20001F9018951F920F920FB60F9211240BB6B9
:100D30000F922F938F939F93EF93FF93E091C702AE
:100D4000F091C8028081E091CD02F091CE0282FD47
:100D50001DC090818091D0028F5F8F732091D1024E
:100D6000821741F0E091D002F0E0E954FD4F958FF9
:100D70008093D002FF91EF919F918F912F910F90CF
:100D80000BBE0F900FBE0F901F9018958081F2CF71
:100D9000789484B5826084BD84B5816084BD85B556
:100DA000826085BD85B5816085BD80916E00816062
:100DB00080936E0010928100809181008260809308
:100DC000810080918100816080938100809180000A
:100DD0008160809380008091B10084608093B10035
:100DE0008091B00081608093B0008091910082601A
:100DF0008093910080919100816080939100809117
:100E000090008160809390008091A1008260809327
:100E1000A1008091A10081608093A1008091A00039
:100E200081608093A00080912101826080932101E4
:100E30008091210181608093210180912001816056
:100E40008093200180917A00846080937A00809161
:100E50007A00826080937A0080917A00816080932A
:100E60007A0080917A00806880937A001092C100A5
:100E7000E091C702F091C80282E08083E091C30252
:100E8000F091C4021082E091C502F091C6028FEC8D
:100E900080831092CF02E091CB02F091CC0286E0E9
:100EA0008083E091C902F091CA02808180618083D1
:100EB000E091C902F091CA02808188608083E0914C
:100EC000C902F091CA02808180688083E091C902E2
:100ED000F091CA0280818F7D808381E292E00E943E
:100EE00003058EE192E00E9403058FE192E00E94EB
:100EF00003058EE192E00E94030582E090E00E94EB
:100F0000BE0288E492E00E9403056091B3027091F2
:100F1000B402072E000C880B990B0E94F8090E945E
:100F2000540582E592E00E9403056091B50270913C
:100F3000B602072E000C880B990B0E94F8090E943C
:100F4000540587E692E00E9403050E94BD0360916C
:100F5000B5027091B602072E000C880B990B0E9407
:100F6000F80926E636E646EE5FE30E94050B20E030
:100F700030E040E052E40E94E4080E9454058FE70C
:100F800092E00E9403050E94BD036091B50270913A
:100F9000B602072E000C880B990B0E94F80923E378
:100FA00033E948E853E40E94E4080E94540583E9C9
:100FB00092E00E9403050E94BD036091B50270910A
:100FC000B602072E000C880B990B0E94F80923E348
:100FD00033E948E853E40E94E4089B01AC0163E371
:100FE00073E98AEB93E40E9455096B017C0120E0D0
:100FF00030E040E85FE30E94E3084B015C0126E338
:1010000035EE4CEF50EC0E94050B2B013C01C70163
:10101000B6010E94AD0A28E036EE40EA50E40E9494
:10102000050BA30192010E94E4082B013C01A701DA
:10103000960160E070E080E89FE30E9455099B0103
:10104000AC0160E070E080E89FE30E94E30826E0E6
:1010500031E845E351E40E94050B9B01AC0160E0DF
:1010600070E080E291E40E94720B20E030E040E802
:101070005FE30E94E30822E239E544E154EB0E9479
:10108000050BA30192010E94E4086B017C0122E997
:1010900034E74FE550ECC501B4010E94050B9B01FC
:1010A000AC0160E070E080E291E40E94720B20E00D
:1010B00030E040E85FE30E94E30820E73FE345E0DB
:1010C0005CE30E94050BA70196010E94E40822EA56
:1010D0003DE540E450E40E94E40820E030E040E4D4
:1010E00050E40E94E3089B01AC0160E070E080E204
:1010F00091E40E94720B6B017C016091B3027091CC
:10110000B402072E000C880B990B0E94F809A70166
:1011100096010E94050B24E13CE54CE15FE30E944F
:1011200055090E94BD0A6B017C0128E431EE41E7BC
:1011300053E40E94050B4B015C01A701960169EC89
:1011400076E78CE891E40E94E3089B01AC01C501BD
:10115000B4010E9455090E94540560ED77E080E0DB
:1011600090E00E948C020E94D204BFCEE7EBF2E036
:101170001382128288EE93E0A0E0B0E0848395832E
:10118000A683B78384E092E09183808385EC90E02E
:101190009587848784EC90E09787868780EC90E041
:1011A000918B808B81EC90E0938B828B82EC90E032
:1011B000958B848B86EC90E0978B868B118E128EAC
:1011C000138E148E08955058BB27AA270E94FB083F
:1011D0000C946E0A0E94600A38F00E94670A20F0A0
:1011E00039F49F3F19F426F40C945D0A0EF4E0954F
:1011F000E7FB0C94570AE92F0E947F0A58F3BA17AD
:10120000620773078407950720F079F4A6F50C941C
:10121000A10A0EF4E0950B2EBA2FA02D0B01B901F7
:1012200090010C01CA01A0011124FF27591B99F05C
:10123000593F50F4503E68F11A16F040A22F232F68
:10124000342F4427585FF3CF469537952795A795B8
:10125000F0405395C9F77EF41F16BA0B620B730B5F
:10126000840BBAF09150A1F0FF0FBB1F661F771FD0
:10127000881FC2F70EC0BA0F621F731F841F48F485
:10128000879577956795B795F7959E3F08F0B0CF0E
:101290009395880F08F09927EE0F979587950895F5
:1012A0000E94330A08F481E008950E9469090C94B1
:1012B0006E0A0E94670A58F00E94600A40F029F402
:1012C0005F3F29F00C94570A51110C94A20A0C9418
:1012D0005D0A0E947F0A68F39923B1F3552391F3C5
:1012E000951B550BBB27AA2762177307840738F095
:1012F0009F5F5F4F220F331F441FAA1FA9F335D0F2
:101300000E2E3AF0E0E832D091505040E695001CA5
:10131000CAF72BD0FE2F29D0660F771F881FBB1F5F
:10132000261737074807AB07B0E809F0BB0B802D3D
:10133000BF01FF2793585F4F3AF09E3F510578F069
:101340000C94570A0C94A20A5F3FE4F3983ED4F33E
:10135000869577956795B795F7959F5FC9F7880F3D
:10136000911D9695879597F90895E1E0660F771F8F
:10137000881FBB1F621773078407BA0720F0621B20
:10138000730B840BBA0BEE1F88F7E09508950E944B
:10139000870A88F09F5798F0B92F9927B751B0F076
:1013A000E1F0660F771F881F991F1AF0BA95C9F7E9
:1013B00014C0B13091F00E94A10AB1E008950C94DC
:1013C000A10A672F782F8827B85F39F0B93FCCF38F
:1013D000869577956795B395D9F73EF49095809566
:1013E000709561957F4F8F4F9F4F0895E89409C086
:1013F00097FB3EF490958095709561957F4F8F4F48
:101400009F4F9923A9F0F92F96E9BB279395F6955D
:10141000879577956795B795F111F8CFFAF4BB0FDB
:1014200011F460FF1BC06F5F7F4F8F4F9F4F16C03F
:10143000882311F096E911C0772321F09EE8872FC9
:10144000762F05C0662371F096E8862F70E060E085
:101450002AF09A95660F771F881FDAF7880F9695FE
:10146000879597F90895990F0008550FAA0BE0E8A2
:10147000FEEF16161706E807F907C0F01216130656
:10148000E407F50798F0621B730B840B950B39F496
:101490000A2661F0232B242B252B21F408950A26FC
:1014A00009F4A140A6958FEF811D811D089597F93C
:1014B0009F6780E870E060E008959FEF80EC0895FA
:1014C00000240A9416161706180609060895002423
:1014D0000A9412161306140605060895092E03949D
:1014E000000C11F4882352F0BB0F40F4BF2B11F411
:1014F00060FF04C06F5F7F4F8F4F9F4F089557FD70
:101500009058440F551F59F05F3F71F04795880F71
:1015100097FB991F61F09F3F79F087950895121608
:1015200013061406551FF2CF4695F1DF08C01616B4
:1015300017061806991FF1CF869571056105089465
:101540000895E894BB2766277727CB0197F908957C
:101550000E94330A08F48FEF08950E94BD0A29ED16
:101560003BE54EED5EE30C94050B16F00C94010C7C
:101570000C945D0A68940C94570A0E94870AA8F399
:101580009923C1F3AEF3DF93CF931F930F93FF9291
:10159000C92FDD2788232AF02197660F771F881F20
:1015A000DAF720E030E040E85FEB9FE3883920F095
:1015B000803E38F021968F770E94E408E4EEF0E058
:1015C00004C00E94E408E1E1F1E00E940F0C8B01ED
:1015D000BE01EC01FB2E6F5771097595771F880BC3
:1015E000990B0E94F80928E132E741E35FE30E948A
:1015F000180BAF2D9801AE01FF900F911F91CF9165
:10160000DF910E94FB080C946E0A0E94180B0C9448
:101610006E0A0E94600A38F00E94670A20F0952343
:1016200011F00C94570A0C945D0A11240C94A20A30
:101630000E947F0A70F3959FC1F3950F50E0551FEC
:10164000629FF001729FBB27F00DB11D639FAA2717
:10165000F00DB11DAA1F649F6627B00DA11D661F66
:10166000829F2227B00DA11D621F739FB00DA11D87
:10167000621F839FA00D611D221F749F3327A00D41
:10168000611D231F849F600D211D822F762F6A2FDD
:1016900011249F5750409AF0F1F088234AF0EE0F42
:1016A000FF1FBB1F661F771F881F91505040A9F76F
:1016B0009E3F510580F00C94570A0C94A20A5F3F9C
:1016C000E4F3983ED4F3869577956795B795F795AB
:1016D000E7959F5FC1F7FE2B880F911D9695879523
:1016E00097F90895FA01EE0FFF1F30962105310595
:1016F000A1F16115710561F48038BFE39B0749F1E1
:1017000068949038810561F08038BFEF9B0741F005
:1017100099234AF5FF3FE1053105210519F1E894C8
:101720000894E795D901AA2329F4AB2FBE2FF85FBF
:10173000D0F310C0FF5F70F4A695E0F7F73950F0D2
:1017400019F0FF3A38F49F779F930DD00F9007FC64
:101750009058089546F00C945D0A60E070E080E8CF
:101760009FE308954FE79F775F934F933F932F93A6
:101770000E94BD0A2F913F914F915F910E94050BEE
:101780000C94CF0B0E94330A880B990B089529F40F
:1017900016F00C94570A0C94A10A0C945D0A0E944E
:1017A000870AA8F39638A0F707F80F92E8942BE37E
:1017B0003AEA48EB5FE70E941B0B0F920F920F92E1
:1017C0004DB75EB70F920E94780CEEE3F1E00E94F5
:1017D0000F0C4F915F91EF91FF91E595EE1FFF1F69
:1017E00049F0FE57E0684427EE0F441FFA95E1F7F1
:1017F0004195550B0E94420C0F9007FE0C94360C3D
:1018000008959F3F31F0915020F487957795679523
:10181000B795880F911D9695879597F90895DF9351
:10182000CF931F930F93FF92EF92DF927B018C0176
:10183000689406C0DA2EEF010E94180BFE01E894AE
:10184000A5912591359145915591A6F3EF010E94FF
:10185000FB08FE019701A801DA9469F7DF90EF9089
:10186000FF900F911F91CF91DF9108959B01AC01E3
:1018700060E070E080E89FE30C9455090C94570AEF
:101880000C94010C0E94870AD8F39923C9F3940F92
:10189000511DA3F39150504094F059F0882332F039
:1018A000660F771F881F91505040C1F79E3F51052A
:1018B0002CF7880F911D9695879597F908955F3FAE
:1018C000ACF0983E9CF0BB27869577956795B795C9
:1018D00008F4B1609395C1F7BB0F58F711F460FF9E
:1018E000E8CF6F5F7F4F8F4F9F4FE3CF0C94A20ADB
:1018F000FA01DC01AA0FBB1F9B01AC01BF5728F402
:10190000222733274427507820C0B75190F4AB2FBB
:101910000024469537952795011CA395D2F3002006
:1019200071F0220F331F441FB395DAF30ED00C94DD
:10193000E30861307105A0E88A07B94630F49B01DD
:10194000AC016627772788279078309621F020838E
:101950003183428353830895A1E21A2EAA1BBB1B35
:10196000FD010DC0AA1FBB1FEE1FFF1FA217B3076B
:10197000E407F50720F0A21BB30BE40BF50B661F81
:10198000771F881F991F1A9469F760957095809545
:1019900090959B01AC01BD01CF010895EE0FFF1F93
:1019A000881F8BBF0790F691E02D1994F894FFCF14
:1019B000000000006504CF03FC03B2042D040B04F7
:1019C0001F046E616E00696E66006F7666000D0A18
:1019D0000041726475696E6F7475726B6979652EFA
:1019E000636F6D2044485431312054657374205026
:1019F000726F6772616D69004E656D202825293A06
:101A00002000536963616B6C696B202843656C63CC
:101A1000697573293A2000536963616B6C696B20A7
:101A20002846616872656E68656974293A200053BA
:101A30006963616B6C696B20284B656C76696E29F4
:101A40003A2000436967204F6C75736D61204E6FBB
:081A50006B746173693A200018
:00000001FF
