:100000000C9424010C9438010C9438010C943801A0
:100010000C9438010C9438010C9438010C9438017C
:100020000C9438010C9438010C9438010C9438016C
:100030000C9438010C9438010C9438010C9438015C
:100040000C9438010C9438010C9438010C9438014C
:100050000C9438010C9438010C9438010C94F10183
:100060000C9438010C9438010C9438010C9438012C
:100070000C9438010C9438010C9438010C9438011C
:100080000C9438010C9438010C9438010C9438010C
:100090000C9438010C9438010C9438010C943801FC
:1000A0000C9438010C9438010C9438010C943801EC
:1000B0000C9438010C9438010C9438010C943801DC
:1000C0000C9438010C9438010C9438010C943801CC
:1000D0000C9438010C9438010C9438010C943801BC
:1000E0000C9438010C948F010C9462010C946601FD
:1000F0000C946D010C9458010C945E010C946A01EF
:100100000C9473010C948B010C949D010C94990137
:100110000C947D010C9498010C9481010C9477014E
:100120000C9485010C949301000021002400270009
:100130002A002D00300033000101000004010701F6
:100140000A01000020002300260029002C002F00B7
:100150003200000100000301060109010000220035
:10016000250028002B002E00310034000201000081
:10017000050108010B010505050507050808080824
:10018000020202020A0A080804040404010101012F
:10019000010101010303030303030303040707072A
:1001A0000C0C0C0C0C0C0C0C0202020206060606CF
:1001B000060606060B0B0B0B0B0B0B0B010210209C
:1001C000200808102040102040800201020108048D
:1001D0000201010204081020408080402010080421
:1001E000020180040201804020100804020108047A
:1001F00002010102040810204080010204081020BE
:10020000408000000A0B02090C0D0E0807030401D0
:1002100000000000000000000000000000000000DE
:1002200000000000000000000000000000001211AB
:1002300010000000000000000000000000000000AE
:10024000000000000000000011241FBECFEFD1E22B
:10025000DEBFCDBF00E00CBF22E0A0E0B2E001C0F5
:100260001D92AB30B207E1F70E943B020C947A0377
:100270000C9400008150823108F05AC0E82FF0E061
:100280008827EA5BFE4F8F4F0C945E0366016A017C
:1002900058015E01620198016D01730177017D01D2
:1002A000810185018B018F019801930199019D01C5
:1002B000809180008F7780938000089580918000E6
:1002C0008F7DF9CF80918000877FF5CF84B58F77C0
:1002D00084BD089584B58F7DFBCF8091B0008F776A
:1002E0008093B00008958091B0008F7DF9CF809108
:1002F00090008F77809390000895809190008F7D7B
:10030000F9CF80919000877FF5CF8091A0008F7703
:100310008093A00008958091A0008F7DF9CF8091F7
:10032000A000877FF5CF809120018F7780932001F7
:100330000895809120018F7DF9CF80912001877FE2
:10034000F5CF1F93CF93DF93EFE0F2E09491E9ECC8
:10035000F1E0D491E3E8F1E0C491CC23B9F0182F97
:10036000992319F0892F0E943A01EC2FF0E0EE0F4B
:10037000FF1FE45AFE4FA591B4918FB7F894EC910A
:10038000111108C0D095DE23DC938FBFDF91CF9190
:100390001F910895DE2BF8CF3FB7F89480910702A4
:1003A00090910802A0910902B0910A0226B5A89B7B
:1003B00005C02F3F19F00196A11DB11D3FBFBA2FF7
:1003C000A92F982F8827BC01CD01620F711D811DB7
:1003D000911D42E0660F771F881F991F4A95D1F73C
:1003E00008951F920F920FB60F9211242F933F93EF
:1003F0008F939F93AF93BF938091030290910402D8
:10040000A0910502B09106023091020223E0230F71
:100410002D3758F50196A11DB11D2093020280933E
:10042000030290930402A0930502B0930602809108
:10043000070290910802A0910902B0910A02019668
:10044000A11DB11D8093070290930802A093090299
:10045000B0930A02BF91AF919F918F913F912F91DD
:100460000F900FBE0F901F90189526E8230F02964D
:10047000A11DB11DD2CF789484B5826084BD84B5AE
:10048000816084BD85B5826085BD85B5816085BD8F
:1004900080916E00816080936E0010928100809147
:1004A00081008260809381008091810081608093CF
:1004B0008100809180008160809380008091B100F4
:1004C00084608093B1008091B00081608093B0001F
:1004D0008091910082608093910080919100816071
:1004E0008093910080919000816080939000809132
:1004F000A10082608093A1008091A100816080931F
:10050000A1008091A00081608093A00080912101D2
:10051000826080932101809121018160809321017B
:100520008091200181608093200180917A00846015
:1005300080937A0080917A00826080937A00809123
:100540007A00816080937A0080917A00806880933D
:100550007A001092C1006FEB862E61E0962EF401B6
:100560002491C9E7D1E0FE0184918823C9F090E08D
:10057000880F991FFC01E85DFE4FA591B491FC0125
:10058000E45AFE4F459154913FB7F8949C91822FC5
:10059000809598239C93FA019081892380833FBFA3
:1005A000E9ECF1E02491E3E8F1E08491882399F00B
:1005B00090E0880F991FFC01E85DFE4FA591B49172
:1005C000FC01E45AFE4F859194918FB7F894EC9119
:1005D000E22BEC938FBF25E0222E22E0322E32E078
:1005E000A32EB12C00E010E0F1018491F401F4900D
:1005F000FE01E490EE2009F444C081110E943A010A
:10060000EE2DF0E0EE0FFF1FEE5BFE4FA591B491D3
:100610008C91F822B1F18091000290910102019633
:100620009093010280930002B5010E944A03019752
:1006300079F581E00E94A1010E94CC012B013C01CF
:1006400084EFC82EDD24D394E12CF12C0E94CC0140
:100650006419750986099709683E734081059105FB
:10066000A8F3F1E0CF1AD108E108F10828EE420E14
:1006700023E0521E611C711CC114D104E104F10479
:1006800029F70115110509F4AFCF0E940000ACCF86
:1006900080E0D0CF97FB072E16F4009407D077FDAB
:1006A00009D00E94660307FC05D03EF49095819521
:1006B0009F4F0895709561957F4F0895EE0FFF1F2E
:1006C000881F8BBF0790F691E02D1994AA1BBB1BC6
:1006D00051E107C0AA1FBB1FA617B70710F0A61B42
:1006E000B70B881F991F5A95A9F780959095BC0163
:0806F000CD010895F894FFCF3D
:00000001FF
