:100000000C9435010C9466010C9466010C94660105
:100010000C9466010C9466010C9466010C946601C4
:100020000C9466010C9466010C9466010C946601B4
:100030000C9466010C9466010C9466010C946601A4
:100040000C9466010C9466010C9466010C94660194
:100050000C9466010C9466010C9466010C94610387
:100060000C9466010C94D5030C94AB030C946601BC
:100070000C9466010C9466010C9466010C94660164
:100080000C9466010C9466010C9466010C94660154
:100090000C9466010C9466010C9466010C94660144
:1000A0000C9466010C9466010C9466010C94660134
:1000B0000C9466010C9466010C9466010C94660124
:1000C0000C9466010C9466010C9466010C94660114
:1000D0000C9466010C9466010C9466010C94660104
:1000E0000C9466010C94A5010C94B9010C94980130
:1000F0000C94CB010C949B010C9490010C94720213
:100100000C94AB010C9486010C9422020C94BD015A
:100110000C948C010C945E020C94B8020C940503B0
:100120000C94C7010C94C1010C94B3010C94C6014A
:100130000C9480020C94AF010C94B3050C944F0204
:100140000C9494010C94A1010000210024002700CC
:100150002A002D00300033000101000004010701D6
:100160000A01000020002300260029002C002F0097
:100170003200000100000301060109010000220015
:10018000250028002B002E00310034000201000061
:10019000050108010B010505050507050808080804
:1001A000020202020A0A080804040404010101010F
:1001B000010101010303030303030303040707070A
:1001C0000C0C0C0C0C0C0C0C0202020206060606AF
:1001D000060606060B0B0B0B0B0B0B0B010210207C
:1001E000200808102040102040800201020108046D
:1001F0000201010204081020408080402010080401
:100200000201800402018040201008040201080459
:10021000020101020408102040800102040810209D
:10022000408000000A0B02090C0D0E0807030401B0
:1002300000000000000000000000000000000000BE
:10024000000000000000000000000000000012118B
:10025000100000000000000000000000000000008E
:100260000000000000000000B30511241FBECFEF06
:10027000D1E2DEBFCDBF00E00CBF12E0A0E0B2E0F3
:10028000E2EEFDE000E00BBF02C007900D92AA3144
:10029000B107D9F722E0AAE1B2E001C01D92A03C6B
:1002A000B207E1F711E0C5E3D1E000E006C0219715
:1002B0000109802FFE010E94E706C433D10780E0C8
:1002C0000807A9F70E940B040C94EF060C94000099
:1002D0008150823108F05AC0E82FF0E08827EC58AE
:1002E000FE4F8F4F0C94E7069401980186018C0114
:1002F0009001C6019B01A101A501AB01AF01B301B2
:10030000B901BD01C601C101C701CB0180918000C7
:100310008F77809380000895809180008F7DF9CF42
:1003200080918000877FF5CF84B58F7784BD089555
:1003300084B58F7DFBCF8091B0008F778093B00024
:1003400008958091B0008F7DF9CF809190008F77D4
:10035000809390000895809190008F7DF9CF8091D7
:100360009000877FF5CF8091A0008F778093A000C9
:1003700008958091A0008F7DF9CF8091A000877FA4
:10038000F5CF809120018F7780932001089580918F
:1003900020018F7DF9CF80912001877FF5CF1F93BA
:1003A000CF93DF93282F30E0F901EE5DFD4F84916C
:1003B000F901E452FE4FD491F901EA56FE4FC4917F
:1003C000CC23A9F0162F81110E946801EC2FF0E0D8
:1003D000EE0FFF1FE458FE4FA591B4918FB7F8942C
:1003E000EC91111108C0D095DE23DC938FBFDF9113
:1003F000CF911F910895DE2BF8CF3FB7F8948091ED
:10040000BC029091BD02A091BE02B091BF0226B580
:10041000A89B05C02F3F19F00196A11DB11D3FBF3C
:10042000BA2FA92F982F8827BC01CD01620F711D0B
:10043000811D911D42E0660F771F881F991F4A9505
:10044000D1F70895AF92BF92CF92DF92EF92FF92D1
:100450000F931F93CF93DF936C017B018B01040FEC
:10046000151FEB015E01AE18BF08C017D10759F088
:100470006991D601ED91FC910190F081E02DC601CA
:100480001995892B79F7C501DF91CF911F910F91B4
:10049000FF90EF90DF90CF90BF90AF900895FC0158
:1004A000538D448D252F30E0842F90E0821B930BD9
:1004B000541710F0CF96089501970895FC01918D7F
:1004C000828D981761F0A28DAE0FBF2FB11D5D9682
:1004D0008C91928D9F5F9F73928F90E008958FEF24
:1004E0009FEF0895FC01918D828D981731F0828DD8
:1004F000E80FF11D858D90E008958FEF9FEF08952F
:10050000FC01918D228D892F90E0805C9F4F821B92
:1005100091098F73992708958AE192E00E948002E1
:1005200021E0892B09F420E0822F0895FC01A48D9D
:10053000A80FB92FB11DA35ABF4F2C91848D90E005
:1005400001968F739927848FA689B7892C93A089E8
:10055000B1898C91837080648C93938D848D981372
:1005600006C00288F389E02D80818F7D8083089505
:10057000EF92FF920F931F93CF93DF93EC0181E0F3
:10058000888F9B8D8C8D98131AC0E889F98980819A
:1005900085FF15C09FB7F894EE89FF896083E889CD
:1005A000F98980818370806480839FBF81E090E0BF
:1005B000DF91CF911F910F91FF90EF900895F62E4C
:1005C0000B8D10E00F5F1F4F0F731127E02E8C8DE6
:1005D0008E110CC00FB607FCFACFE889F98980812B
:1005E00085FFF5CFCE010E949602F1CFEB8DEC0F87
:1005F000FD2FF11DE35AFF4FF0829FB7F8940B8F48
:10060000EA89FB8980818062CFCFCF93DF93EC01B1
:10061000888D8823B9F0AA89BB89E889F9898C91EA
:1006200085FD03C0808186FD0DC00FB607FCF7CFA6
:100630008C9185FFF2CF808185FFEDCFCE010E94A6
:100640009602E9CFDF91CF91089580E090E0892B69
:1006500029F00E948C0281110E94000080E090E04D
:10066000892B49F080E090E0892B29F00E9400005E
:1006700081110E94000080E090E0892B49F080E029
:1006800090E0892B29F00E94000081110E94000057
:1006900080E090E0892B49F080E090E0892B29F000
:1006A0000E94000081110C9400000895CF93CFE0C8
:1006B00060E08C2F0E94CF01CF5FC331C9F7CF918B
:1006C00008951F920F920FB60F9211242F933F930C
:1006D0008F939F93AF93BF938091B8029091B9028B
:1006E000A091BA02B091BB023091B70223E0230F70
:1006F0002D3758F50196A11DB11D2093B7028093A7
:10070000B8029093B902A093BA02B093BB02809151
:10071000BC029091BD02A091BE02B091BF020196B1
:10072000A11DB11D8093BC029093BD02A093BE0297
:10073000B093BF02BF91AF919F918F913F912F9145
:100740000F900FBE0F901F90189526E8230F02966A
:10075000A11DB11DD2CF1F920F920FB60F9211247F
:100760000BB60F922F933F934F935F936F937F93AB
:100770008F939F93AF93BF93EF93FF938AE192E0A0
:100780000E949602FF91EF91BF91AF919F918F913F
:100790007F916F915F914F913F912F910F900BBE81
:1007A0000F900FBE0F901F9018951F920F920FB6CB
:1007B0000F9211240BB60F922F938F939F93EF9369
:1007C000FF93E0912A02F0912B028081E0913002A8
:1007D000F091310282FD1DC09081809133028F5FC4
:1007E0008F7320913402821741F0E0913302F0E0E0
:1007F000E65EFD4F958F80933302FF91EF919F91BD
:100800008F912F910F900BBE0F900FBE0F901F90E6
:1008100018958081F2CFCF93DF93CDB7DEB7A19744
:100820000FB6F894DEBF0FBECDBF789484B582605A
:1008300084BD84B5816084BD85B5826085BD85B584
:10084000816085BD80916E00816080936E00109202
:10085000810080918100826080938100809181007D
:10086000816080938100809180008160809380000E
:100870008091B10084608093B1008091B00081606C
:100880008093B0008091910082608093910080916C
:1008900091008160809391008091900081608093AD
:1008A00090008091A10082608093A1008091A100BE
:1008B00081608093A1008091A00081608093A0005E
:1008C00080912101826080932101809121018160CA
:1008D000809321018091200181608093200180918B
:1008E0007A00846080937A0080917A00826080939D
:1008F0007A0080917A00816080937A0080917A00FA
:10090000806880937A001092C100E0912A02F091F1
:100910002B0282E08083E0912602F0912702108270
:10092000E0912802F09129028FEC8083109232022C
:10093000E0912E02F0912F0286E08083E0912C025C
:10094000F0912D02808180618083E0912C02F091F2
:100950002D02808188608083E0912C02F0912D022D
:10096000808180688083E0912C02F0912D0280814B
:100970008F7D808380917B00877F80937B0080E4E4
:1009800080937C0080917A00806480937A008091CB
:100990007A0086FDFCCF6091780070917900072E77
:1009A000000C880B990B611571058105910511F0FB
:1009B0000E947B062FE030E0F901E452FE4F4491A3
:1009C000F901EA56FE4F8491882399F090E0880F50
:1009D000991FFC01E85BFE4FA591B491FC01E4581E
:1009E000FE4F859194918FB7F894EC91E42BEC93A2
:1009F0008FBF2F5F3F4F23313105F1F6E2EEF1E07B
:100A000024915CE9252E51E0352EF1018491882353
:100A1000C9F090E0880F991FFC01E85BFE4FA5919B
:100A2000B491FC01E458FE4F459154919FB7F8945E
:100A30003C91822F809583238C93FA018081282B0F
:100A400020839FBF3AE0832E912CA12CB12CE8E2A9
:100A5000F2E08491E2EEF1E01491F10104910023BF
:100A600099F081110E946801E02FF0E0EE0FFF1F66
:100A7000EE59FE4FA591B4918C91182329F00E9454
:100A800056030E942503E3CF0E942C0624E030E0A9
:100A900040E050E00E9484066B017C01FFE0CF0E35
:100AA000D11CE11CF11C2601370119A28E010F5D3A
:100AB0001F4FC301B201A50194010E94B606605DFB
:100AC000F80162938F01FAE04F165104610471043A
:100AD00008F044C00115110569F0F80101900020EB
:100AE000E9F73197AF01401B510BB8018AE192E061
:100AF0000E94220242E050E066E172E08AE192E068
:100B00000E9422020E94560361E08C2D0E94CF01B8
:100B10000E94FD012B013C0184EFC82EDD24D394FB
:100B2000E12CF12C0E94FD016419750986099709D1
:100B3000683E734081059105A8F321E0C21AD108EF
:100B4000E108F10888EE480E83E0581E611C711C14
:100B5000C114D104E104F10429F793CF412C512CA5
:100B600032014394A6CFEAE1F2E01382128288EECA
:100B700093E0A0E0B0E084839583A683B78388E008
:100B800092E09183808385EC90E09587848784EC64
:100B900090E09787868780EC90E0918B808B81EC4A
:100BA00090E0938B828B82EC90E0958B848B86EC2B
:100BB00090E0978B868B118E128E138E148E089573
:100BC0008F929F92AF92BF92CF92DF92EF92FF925D
:100BD000CF93DF93EC01688179818A819B816115D4
:100BE00071058105910521F464E279ED8BE597E0CB
:100BF0002DE133EF41E050E00E94840649015A01A3
:100C00009B01AC01A7EAB1E40E94A3066B017C0141
:100C1000ACEEB4EFA50194010E94B106C60ED71E3A
:100C2000E81EF91EF7FE06C081E0C81AD108E108E7
:100C300080E8F80AC882D982EA82FB82C701B6013D
:100C40009F77DF91CF91FF90EF90DF90CF90BF9093
:100C5000AF909F908F9008958F929F92AF92BF9286
:100C6000CF92DF92EF92FF926091000270910102A9
:100C70008091020290910302611571058105910531
:100C800021F464E279ED8BE597E02DE133EF41E06B
:100C900050E00E94840649015A019B01AC01A7EA79
:100CA000B1E40E94A3066B017C01ACEEB4EFA50198
:100CB00094010E94B106C60ED71EE81EF91EF7FE6B
:100CC00006C081E0C81AD108E10880E8F80AC0929D
:100CD0000002D0920102E0920202F0920302C701E8
:100CE000B6019F77FF90EF90DF90CF90BF90AF90CD
:100CF0009F908F90089560930002709301028093FB
:100D00000202909303020895052E97FB1EF40094AF
:100D10000E949B0657FD07D00E94B60607FC03D031
:100D20004EF40C949B0650954095309521953F4F7D
:100D30004F4F5F4F089590958095709561957F4FC7
:100D40008F4F9F4F08950E94D806A59F900DB49F86
:100D5000900DA49F800D911D11240895B7FF0C9450
:100D6000A3060E94A306821B930B0895A1E21A2EEC
:100D7000AA1BBB1BFD010DC0AA1FBB1FEE1FFF1F3F
:100D8000A217B307E407F50720F0A21BB30BE40B8F
:100D9000F50B661F771F881F991F1A9469F76095D6
:100DA0007095809590959B01AC01BD01CF01089590
:100DB000A29FB001B39FC001A39F700D811D11249C
:100DC000911DB29F700D811D1124911D0895EE0F8C
:100DD000FF1F881F8BBF0790F691E02D1994F894A0
:020DE000FFCF43
:100DE2000100000000000000B80222024F020503C9
:0A0DF20080025E0272020D0A00008A
:00000001FF
